{
	"voting_howest1.sol": {
		"ProxyContract": {
			"abi": [
				{
					"stateMutability": "payable",
					"type": "fallback"
				},
				{
					"inputs": [],
					"name": "currentContractAddress",
					"outputs": [
						{
							"internalType": "address",
							"name": "",
							"type": "address"
						}
					],
					"stateMutability": "view",
					"type": "function"
				},
				{
					"inputs": [
						{
							"internalType": "address payable",
							"name": "_newContractAddress",
							"type": "address"
						}
					],
					"name": "update",
					"outputs": [],
					"stateMutability": "nonpayable",
					"type": "function"
				}
			],
			"devdoc": {
				"kind": "dev",
				"methods": {},
				"version": 1
			},
			"evm": {
				"assembly": "    /* \"voting_howest1.sol\":1351:1764  contract ProxyContract {... */\n  mstore(0x40, 0x80)\n  callvalue\n  dup1\n  iszero\n  tag_1\n  jumpi\n  0x00\n  dup1\n  revert\ntag_1:\n  pop\n  dataSize(sub_0)\n  dup1\n  dataOffset(sub_0)\n  0x00\n  codecopy\n  0x00\n  return\nstop\n\nsub_0: assembly {\n        /* \"voting_howest1.sol\":1351:1764  contract ProxyContract {... */\n      mstore(0x40, 0x80)\n      jumpi(tag_1, lt(calldatasize, 0x04))\n      shr(0xe0, calldataload(0x00))\n      dup1\n      0x1c1b8772\n      eq\n      tag_3\n      jumpi\n      dup1\n      0x290a9ee5\n      eq\n      tag_4\n      jumpi\n      jump(tag_2)\n    tag_1:\n    tag_2:\n      0x00\n      calldatasize\n        /* \"voting_howest1.sol\":1609:1621  bytes memory */\n      0x60\n        /* \"voting_howest1.sol\":1634:1645  bool result */\n      0x00\n        /* \"voting_howest1.sol\":1647:1664  bytes memory data */\n      dup1\n        /* \"voting_howest1.sol\":1668:1690  currentContractAddress */\n      0x00\n      dup1\n      sload\n      swap1\n      0x0100\n      exp\n      swap1\n      div\n      0xffffffffffffffffffffffffffffffffffffffff\n      and\n        /* \"voting_howest1.sol\":1668:1695  currentContractAddress.call */\n      0xffffffffffffffffffffffffffffffffffffffff\n      and\n        /* \"voting_howest1.sol\":1696:1704  msg.data */\n      0x00\n      calldatasize\n        /* \"voting_howest1.sol\":1668:1705  currentContractAddress.call(msg.data) */\n      mload(0x40)\n      tag_7\n      swap3\n      swap2\n      swap1\n      tag_8\n      jump\t// in\n    tag_7:\n      0x00\n      mload(0x40)\n      dup1\n      dup4\n      sub\n      dup2\n      0x00\n      dup7\n      gas\n      call\n      swap2\n      pop\n      pop\n      returndatasize\n      dup1\n      0x00\n      dup2\n      eq\n      tag_11\n      jumpi\n      mload(0x40)\n      swap2\n      pop\n      and(add(returndatasize, 0x3f), not(0x1f))\n      dup3\n      add\n      0x40\n      mstore\n      returndatasize\n      dup3\n      mstore\n      returndatasize\n      0x00\n      0x20\n      dup5\n      add\n      returndatacopy\n      jump(tag_10)\n    tag_11:\n      0x60\n      swap2\n      pop\n    tag_10:\n      pop\n        /* \"voting_howest1.sol\":1633:1705  (bool result, bytes memory data) = currentContractAddress.call(msg.data) */\n      swap2\n      pop\n      swap2\n      pop\n        /* \"voting_howest1.sol\":1724:1730  result */\n      dup2\n        /* \"voting_howest1.sol\":1716:1731  require(result) */\n      tag_12\n      jumpi\n      0x00\n      dup1\n      revert\n    tag_12:\n        /* \"voting_howest1.sol\":1749:1753  data */\n      dup1\n        /* \"voting_howest1.sol\":1742:1753  return data */\n      swap3\n      pop\n      pop\n      pop\n        /* \"voting_howest1.sol\":1559:1761  fallback(bytes calldata) external payable returns(bytes memory){... */\n      swap2\n      pop\n      pop\n        /* \"voting_howest1.sol\":1351:1764  contract ProxyContract {... */\n      dup1\n      mload\n      swap1\n      0x20\n      add\n      return\n        /* \"voting_howest1.sol\":1427:1551  function update (address payable _newContractAddress) public {... */\n    tag_3:\n      callvalue\n      dup1\n      iszero\n      tag_13\n      jumpi\n      0x00\n      dup1\n      revert\n    tag_13:\n      pop\n      tag_14\n      0x04\n      dup1\n      calldatasize\n      sub\n      dup2\n      add\n      swap1\n      tag_15\n      swap2\n      swap1\n      tag_16\n      jump\t// in\n    tag_15:\n      tag_17\n      jump\t// in\n    tag_14:\n      stop\n        /* \"voting_howest1.sol\":1381:1418  address public currentContractAddress */\n    tag_4:\n      callvalue\n      dup1\n      iszero\n      tag_18\n      jumpi\n      0x00\n      dup1\n      revert\n    tag_18:\n      pop\n      tag_19\n      tag_20\n      jump\t// in\n    tag_19:\n      mload(0x40)\n      tag_21\n      swap2\n      swap1\n      tag_22\n      jump\t// in\n    tag_21:\n      mload(0x40)\n      dup1\n      swap2\n      sub\n      swap1\n      return\n        /* \"voting_howest1.sol\":1427:1551  function update (address payable _newContractAddress) public {... */\n    tag_17:\n        /* \"voting_howest1.sol\":1524:1543  _newContractAddress */\n      dup1\n        /* \"voting_howest1.sol\":1499:1521  currentContractAddress */\n      0x00\n      dup1\n        /* \"voting_howest1.sol\":1499:1543  currentContractAddress = _newContractAddress */\n      0x0100\n      exp\n      dup2\n      sload\n      dup2\n      0xffffffffffffffffffffffffffffffffffffffff\n      mul\n      not\n      and\n      swap1\n      dup4\n      0xffffffffffffffffffffffffffffffffffffffff\n      and\n      mul\n      or\n      swap1\n      sstore\n      pop\n        /* \"voting_howest1.sol\":1427:1551  function update (address payable _newContractAddress) public {... */\n      pop\n      jump\t// out\n        /* \"voting_howest1.sol\":1381:1418  address public currentContractAddress */\n    tag_20:\n      0x00\n      dup1\n      sload\n      swap1\n      0x0100\n      exp\n      swap1\n      div\n      0xffffffffffffffffffffffffffffffffffffffff\n      and\n      dup2\n      jump\t// out\n        /* \"#utility.yul\":7:154   */\n    tag_24:\n        /* \"#utility.yul\":108:119   */\n      0x00\n        /* \"#utility.yul\":145:148   */\n      dup2\n        /* \"#utility.yul\":130:148   */\n      swap1\n      pop\n        /* \"#utility.yul\":7:154   */\n      swap3\n      swap2\n      pop\n      pop\n      jump\t// out\n        /* \"#utility.yul\":160:306   */\n    tag_25:\n        /* \"#utility.yul\":257:263   */\n      dup3\n        /* \"#utility.yul\":252:255   */\n      dup2\n        /* \"#utility.yul\":247:250   */\n      dup4\n        /* \"#utility.yul\":234:264   */\n      calldatacopy\n        /* \"#utility.yul\":298:299   */\n      0x00\n        /* \"#utility.yul\":289:295   */\n      dup4\n        /* \"#utility.yul\":284:287   */\n      dup4\n        /* \"#utility.yul\":280:296   */\n      add\n        /* \"#utility.yul\":273:300   */\n      mstore\n        /* \"#utility.yul\":160:306   */\n      pop\n      pop\n      pop\n      jump\t// out\n        /* \"#utility.yul\":334:661   */\n    tag_26:\n        /* \"#utility.yul\":448:451   */\n      0x00\n        /* \"#utility.yul\":469:557   */\n      tag_40\n        /* \"#utility.yul\":550:556   */\n      dup4\n        /* \"#utility.yul\":545:548   */\n      dup6\n        /* \"#utility.yul\":469:557   */\n      tag_24\n      jump\t// in\n    tag_40:\n        /* \"#utility.yul\":462:557   */\n      swap4\n      pop\n        /* \"#utility.yul\":567:623   */\n      tag_41\n        /* \"#utility.yul\":616:622   */\n      dup4\n        /* \"#utility.yul\":611:614   */\n      dup6\n        /* \"#utility.yul\":604:609   */\n      dup5\n        /* \"#utility.yul\":567:623   */\n      tag_25\n      jump\t// in\n    tag_41:\n        /* \"#utility.yul\":648:654   */\n      dup3\n        /* \"#utility.yul\":643:646   */\n      dup5\n        /* \"#utility.yul\":639:655   */\n      add\n        /* \"#utility.yul\":632:655   */\n      swap1\n      pop\n        /* \"#utility.yul\":334:661   */\n      swap4\n      swap3\n      pop\n      pop\n      pop\n      jump\t// out\n        /* \"#utility.yul\":667:958   */\n    tag_8:\n        /* \"#utility.yul\":807:810   */\n      0x00\n        /* \"#utility.yul\":829:932   */\n      tag_43\n        /* \"#utility.yul\":928:931   */\n      dup3\n        /* \"#utility.yul\":919:925   */\n      dup5\n        /* \"#utility.yul\":911:917   */\n      dup7\n        /* \"#utility.yul\":829:932   */\n      tag_26\n      jump\t// in\n    tag_43:\n        /* \"#utility.yul\":822:932   */\n      swap2\n      pop\n        /* \"#utility.yul\":949:952   */\n      dup2\n        /* \"#utility.yul\":942:952   */\n      swap1\n      pop\n        /* \"#utility.yul\":667:958   */\n      swap4\n      swap3\n      pop\n      pop\n      pop\n      jump\t// out\n        /* \"#utility.yul\":1045:1162   */\n    tag_28:\n        /* \"#utility.yul\":1154:1155   */\n      0x00\n        /* \"#utility.yul\":1151:1152   */\n      dup1\n        /* \"#utility.yul\":1144:1156   */\n      revert\n        /* \"#utility.yul\":1291:1417   */\n    tag_30:\n        /* \"#utility.yul\":1328:1335   */\n      0x00\n        /* \"#utility.yul\":1368:1410   */\n      0xffffffffffffffffffffffffffffffffffffffff\n        /* \"#utility.yul\":1361:1366   */\n      dup3\n        /* \"#utility.yul\":1357:1411   */\n      and\n        /* \"#utility.yul\":1346:1411   */\n      swap1\n      pop\n        /* \"#utility.yul\":1291:1417   */\n      swap2\n      swap1\n      pop\n      jump\t// out\n        /* \"#utility.yul\":1423:1527   */\n    tag_31:\n        /* \"#utility.yul\":1468:1475   */\n      0x00\n        /* \"#utility.yul\":1497:1521   */\n      tag_49\n        /* \"#utility.yul\":1515:1520   */\n      dup3\n        /* \"#utility.yul\":1497:1521   */\n      tag_30\n      jump\t// in\n    tag_49:\n        /* \"#utility.yul\":1486:1521   */\n      swap1\n      pop\n        /* \"#utility.yul\":1423:1527   */\n      swap2\n      swap1\n      pop\n      jump\t// out\n        /* \"#utility.yul\":1533:1671   */\n    tag_32:\n        /* \"#utility.yul\":1614:1646   */\n      tag_51\n        /* \"#utility.yul\":1640:1645   */\n      dup2\n        /* \"#utility.yul\":1614:1646   */\n      tag_31\n      jump\t// in\n    tag_51:\n        /* \"#utility.yul\":1607:1612   */\n      dup2\n        /* \"#utility.yul\":1604:1647   */\n      eq\n        /* \"#utility.yul\":1594:1665   */\n      tag_52\n      jumpi\n        /* \"#utility.yul\":1661:1662   */\n      0x00\n        /* \"#utility.yul\":1658:1659   */\n      dup1\n        /* \"#utility.yul\":1651:1663   */\n      revert\n        /* \"#utility.yul\":1594:1665   */\n    tag_52:\n        /* \"#utility.yul\":1533:1671   */\n      pop\n      jump\t// out\n        /* \"#utility.yul\":1677:1832   */\n    tag_33:\n        /* \"#utility.yul\":1731:1736   */\n      0x00\n        /* \"#utility.yul\":1769:1775   */\n      dup2\n        /* \"#utility.yul\":1756:1776   */\n      calldataload\n        /* \"#utility.yul\":1747:1776   */\n      swap1\n      pop\n        /* \"#utility.yul\":1785:1826   */\n      tag_54\n        /* \"#utility.yul\":1820:1825   */\n      dup2\n        /* \"#utility.yul\":1785:1826   */\n      tag_32\n      jump\t// in\n    tag_54:\n        /* \"#utility.yul\":1677:1832   */\n      swap3\n      swap2\n      pop\n      pop\n      jump\t// out\n        /* \"#utility.yul\":1838:2183   */\n    tag_16:\n        /* \"#utility.yul\":1905:1911   */\n      0x00\n        /* \"#utility.yul\":1954:1956   */\n      0x20\n        /* \"#utility.yul\":1942:1951   */\n      dup3\n        /* \"#utility.yul\":1933:1940   */\n      dup5\n        /* \"#utility.yul\":1929:1952   */\n      sub\n        /* \"#utility.yul\":1925:1957   */\n      slt\n        /* \"#utility.yul\":1922:2041   */\n      iszero\n      tag_56\n      jumpi\n        /* \"#utility.yul\":1960:2039   */\n      tag_57\n      tag_28\n      jump\t// in\n    tag_57:\n        /* \"#utility.yul\":1922:2041   */\n    tag_56:\n        /* \"#utility.yul\":2080:2081   */\n      0x00\n        /* \"#utility.yul\":2105:2166   */\n      tag_58\n        /* \"#utility.yul\":2158:2165   */\n      dup5\n        /* \"#utility.yul\":2149:2155   */\n      dup3\n        /* \"#utility.yul\":2138:2147   */\n      dup6\n        /* \"#utility.yul\":2134:2156   */\n      add\n        /* \"#utility.yul\":2105:2166   */\n      tag_33\n      jump\t// in\n    tag_58:\n        /* \"#utility.yul\":2095:2166   */\n      swap2\n      pop\n        /* \"#utility.yul\":2051:2176   */\n      pop\n        /* \"#utility.yul\":1838:2183   */\n      swap3\n      swap2\n      pop\n      pop\n      jump\t// out\n        /* \"#utility.yul\":2189:2285   */\n    tag_34:\n        /* \"#utility.yul\":2226:2233   */\n      0x00\n        /* \"#utility.yul\":2255:2279   */\n      tag_60\n        /* \"#utility.yul\":2273:2278   */\n      dup3\n        /* \"#utility.yul\":2255:2279   */\n      tag_30\n      jump\t// in\n    tag_60:\n        /* \"#utility.yul\":2244:2279   */\n      swap1\n      pop\n        /* \"#utility.yul\":2189:2285   */\n      swap2\n      swap1\n      pop\n      jump\t// out\n        /* \"#utility.yul\":2291:2409   */\n    tag_35:\n        /* \"#utility.yul\":2378:2402   */\n      tag_62\n        /* \"#utility.yul\":2396:2401   */\n      dup2\n        /* \"#utility.yul\":2378:2402   */\n      tag_34\n      jump\t// in\n    tag_62:\n        /* \"#utility.yul\":2373:2376   */\n      dup3\n        /* \"#utility.yul\":2366:2403   */\n      mstore\n        /* \"#utility.yul\":2291:2409   */\n      pop\n      pop\n      jump\t// out\n        /* \"#utility.yul\":2415:2637   */\n    tag_22:\n        /* \"#utility.yul\":2508:2512   */\n      0x00\n        /* \"#utility.yul\":2546:2548   */\n      0x20\n        /* \"#utility.yul\":2535:2544   */\n      dup3\n        /* \"#utility.yul\":2531:2549   */\n      add\n        /* \"#utility.yul\":2523:2549   */\n      swap1\n      pop\n        /* \"#utility.yul\":2559:2630   */\n      tag_64\n        /* \"#utility.yul\":2627:2628   */\n      0x00\n        /* \"#utility.yul\":2616:2625   */\n      dup4\n        /* \"#utility.yul\":2612:2629   */\n      add\n        /* \"#utility.yul\":2603:2609   */\n      dup5\n        /* \"#utility.yul\":2559:2630   */\n      tag_35\n      jump\t// in\n    tag_64:\n        /* \"#utility.yul\":2415:2637   */\n      swap3\n      swap2\n      pop\n      pop\n      jump\t// out\n\n    auxdata: 0xa26469706673582212201eb889bd2aa6c244c75f7ce1df8622e80b8159626ba4ab68b0540540c5afaae564736f6c63430008110033\n}\n",
				"bytecode": {
					"linkReferences": {},
					"object": "608060405234801561001057600080fd5b506102f4806100206000396000f3fe60806040526004361061002d5760003560e01c80631c1b8772146100df578063290a9ee5146101085761002e565b5b600036606060008060008054906101000a900473ffffffffffffffffffffffffffffffffffffffff1673ffffffffffffffffffffffffffffffffffffffff1660003660405161007e9291906101d9565b6000604051808303816000865af19150503d80600081146100bb576040519150601f19603f3d011682016040523d82523d6000602084013e6100c0565b606091505b5091509150816100cf57600080fd5b8092505050915050805190602001f35b3480156100eb57600080fd5b5061010660048036038101906101019190610255565b610133565b005b34801561011457600080fd5b5061011d610176565b60405161012a91906102a3565b60405180910390f35b806000806101000a81548173ffffffffffffffffffffffffffffffffffffffff021916908373ffffffffffffffffffffffffffffffffffffffff16021790555050565b60008054906101000a900473ffffffffffffffffffffffffffffffffffffffff1681565b600081905092915050565b82818337600083830152505050565b60006101c0838561019a565b93506101cd8385846101a5565b82840190509392505050565b60006101e68284866101b4565b91508190509392505050565b600080fd5b600073ffffffffffffffffffffffffffffffffffffffff82169050919050565b6000610222826101f7565b9050919050565b61023281610217565b811461023d57600080fd5b50565b60008135905061024f81610229565b92915050565b60006020828403121561026b5761026a6101f2565b5b600061027984828501610240565b91505092915050565b600061028d826101f7565b9050919050565b61029d81610282565b82525050565b60006020820190506102b86000830184610294565b9291505056fea26469706673582212201eb889bd2aa6c244c75f7ce1df8622e80b8159626ba4ab68b0540540c5afaae564736f6c63430008110033",
					"opcodes": "PUSH1 0x80 PUSH1 0x40 MSTORE CALLVALUE DUP1 ISZERO PUSH2 0x10 JUMPI PUSH1 0x0 DUP1 REVERT JUMPDEST POP PUSH2 0x2F4 DUP1 PUSH2 0x20 PUSH1 0x0 CODECOPY PUSH1 0x0 RETURN INVALID PUSH1 0x80 PUSH1 0x40 MSTORE PUSH1 0x4 CALLDATASIZE LT PUSH2 0x2D JUMPI PUSH1 0x0 CALLDATALOAD PUSH1 0xE0 SHR DUP1 PUSH4 0x1C1B8772 EQ PUSH2 0xDF JUMPI DUP1 PUSH4 0x290A9EE5 EQ PUSH2 0x108 JUMPI PUSH2 0x2E JUMP JUMPDEST JUMPDEST PUSH1 0x0 CALLDATASIZE PUSH1 0x60 PUSH1 0x0 DUP1 PUSH1 0x0 DUP1 SLOAD SWAP1 PUSH2 0x100 EXP SWAP1 DIV PUSH20 0xFFFFFFFFFFFFFFFFFFFFFFFFFFFFFFFFFFFFFFFF AND PUSH20 0xFFFFFFFFFFFFFFFFFFFFFFFFFFFFFFFFFFFFFFFF AND PUSH1 0x0 CALLDATASIZE PUSH1 0x40 MLOAD PUSH2 0x7E SWAP3 SWAP2 SWAP1 PUSH2 0x1D9 JUMP JUMPDEST PUSH1 0x0 PUSH1 0x40 MLOAD DUP1 DUP4 SUB DUP2 PUSH1 0x0 DUP7 GAS CALL SWAP2 POP POP RETURNDATASIZE DUP1 PUSH1 0x0 DUP2 EQ PUSH2 0xBB JUMPI PUSH1 0x40 MLOAD SWAP2 POP PUSH1 0x1F NOT PUSH1 0x3F RETURNDATASIZE ADD AND DUP3 ADD PUSH1 0x40 MSTORE RETURNDATASIZE DUP3 MSTORE RETURNDATASIZE PUSH1 0x0 PUSH1 0x20 DUP5 ADD RETURNDATACOPY PUSH2 0xC0 JUMP JUMPDEST PUSH1 0x60 SWAP2 POP JUMPDEST POP SWAP2 POP SWAP2 POP DUP2 PUSH2 0xCF JUMPI PUSH1 0x0 DUP1 REVERT JUMPDEST DUP1 SWAP3 POP POP POP SWAP2 POP POP DUP1 MLOAD SWAP1 PUSH1 0x20 ADD RETURN JUMPDEST CALLVALUE DUP1 ISZERO PUSH2 0xEB JUMPI PUSH1 0x0 DUP1 REVERT JUMPDEST POP PUSH2 0x106 PUSH1 0x4 DUP1 CALLDATASIZE SUB DUP2 ADD SWAP1 PUSH2 0x101 SWAP2 SWAP1 PUSH2 0x255 JUMP JUMPDEST PUSH2 0x133 JUMP JUMPDEST STOP JUMPDEST CALLVALUE DUP1 ISZERO PUSH2 0x114 JUMPI PUSH1 0x0 DUP1 REVERT JUMPDEST POP PUSH2 0x11D PUSH2 0x176 JUMP JUMPDEST PUSH1 0x40 MLOAD PUSH2 0x12A SWAP2 SWAP1 PUSH2 0x2A3 JUMP JUMPDEST PUSH1 0x40 MLOAD DUP1 SWAP2 SUB SWAP1 RETURN JUMPDEST DUP1 PUSH1 0x0 DUP1 PUSH2 0x100 EXP DUP2 SLOAD DUP2 PUSH20 0xFFFFFFFFFFFFFFFFFFFFFFFFFFFFFFFFFFFFFFFF MUL NOT AND SWAP1 DUP4 PUSH20 0xFFFFFFFFFFFFFFFFFFFFFFFFFFFFFFFFFFFFFFFF AND MUL OR SWAP1 SSTORE POP POP JUMP JUMPDEST PUSH1 0x0 DUP1 SLOAD SWAP1 PUSH2 0x100 EXP SWAP1 DIV PUSH20 0xFFFFFFFFFFFFFFFFFFFFFFFFFFFFFFFFFFFFFFFF AND DUP2 JUMP JUMPDEST PUSH1 0x0 DUP2 SWAP1 POP SWAP3 SWAP2 POP POP JUMP JUMPDEST DUP3 DUP2 DUP4 CALLDATACOPY PUSH1 0x0 DUP4 DUP4 ADD MSTORE POP POP POP JUMP JUMPDEST PUSH1 0x0 PUSH2 0x1C0 DUP4 DUP6 PUSH2 0x19A JUMP JUMPDEST SWAP4 POP PUSH2 0x1CD DUP4 DUP6 DUP5 PUSH2 0x1A5 JUMP JUMPDEST DUP3 DUP5 ADD SWAP1 POP SWAP4 SWAP3 POP POP POP JUMP JUMPDEST PUSH1 0x0 PUSH2 0x1E6 DUP3 DUP5 DUP7 PUSH2 0x1B4 JUMP JUMPDEST SWAP2 POP DUP2 SWAP1 POP SWAP4 SWAP3 POP POP POP JUMP JUMPDEST PUSH1 0x0 DUP1 REVERT JUMPDEST PUSH1 0x0 PUSH20 0xFFFFFFFFFFFFFFFFFFFFFFFFFFFFFFFFFFFFFFFF DUP3 AND SWAP1 POP SWAP2 SWAP1 POP JUMP JUMPDEST PUSH1 0x0 PUSH2 0x222 DUP3 PUSH2 0x1F7 JUMP JUMPDEST SWAP1 POP SWAP2 SWAP1 POP JUMP JUMPDEST PUSH2 0x232 DUP2 PUSH2 0x217 JUMP JUMPDEST DUP2 EQ PUSH2 0x23D JUMPI PUSH1 0x0 DUP1 REVERT JUMPDEST POP JUMP JUMPDEST PUSH1 0x0 DUP2 CALLDATALOAD SWAP1 POP PUSH2 0x24F DUP2 PUSH2 0x229 JUMP JUMPDEST SWAP3 SWAP2 POP POP JUMP JUMPDEST PUSH1 0x0 PUSH1 0x20 DUP3 DUP5 SUB SLT ISZERO PUSH2 0x26B JUMPI PUSH2 0x26A PUSH2 0x1F2 JUMP JUMPDEST JUMPDEST PUSH1 0x0 PUSH2 0x279 DUP5 DUP3 DUP6 ADD PUSH2 0x240 JUMP JUMPDEST SWAP2 POP POP SWAP3 SWAP2 POP POP JUMP JUMPDEST PUSH1 0x0 PUSH2 0x28D DUP3 PUSH2 0x1F7 JUMP JUMPDEST SWAP1 POP SWAP2 SWAP1 POP JUMP JUMPDEST PUSH2 0x29D DUP2 PUSH2 0x282 JUMP JUMPDEST DUP3 MSTORE POP POP JUMP JUMPDEST PUSH1 0x0 PUSH1 0x20 DUP3 ADD SWAP1 POP PUSH2 0x2B8 PUSH1 0x0 DUP4 ADD DUP5 PUSH2 0x294 JUMP JUMPDEST SWAP3 SWAP2 POP POP JUMP INVALID LOG2 PUSH5 0x6970667358 0x22 SLT KECCAK256 0x1E 0xB8 DUP10 0xBD 0x2A 0xA6 0xC2 DIFFICULTY 0xC7 0x5F PUSH29 0xE1DF8622E80B8159626BA4AB68B0540540C5AFAAE564736F6C63430008 GT STOP CALLER "
				},
				"gasEstimates": {
					"creation": {
						"codeDepositCost": "151200",
						"executionCost": "196",
						"totalCost": "151396"
					},
					"external": {
						"": "infinite",
						"currentContractAddress()": "2511",
						"update(address)": "24700"
					}
				},
				"methodIdentifiers": {
					"currentContractAddress()": "290a9ee5",
					"update(address)": "1c1b8772"
				}
			},
			"storageLayout": {
				"storage": [
					{
						"astId": 60,
						"contract": "voting_howest1.sol:ProxyContract",
						"label": "currentContractAddress",
						"offset": 0,
						"slot": "0",
						"type": "t_address"
					}
				],
				"types": {
					"t_address": {
						"encoding": "inplace",
						"label": "address",
						"numberOfBytes": "20"
					}
				}
			},
			"userdoc": {
				"kind": "user",
				"methods": {},
				"version": 1
			}
		}
	}
}