{
	"voting_howest1.sol": {
		"Voting": {
			"abi": [
				{
					"anonymous": false,
					"inputs": [
						{
							"indexed": true,
							"internalType": "address",
							"name": "oldOwner",
							"type": "address"
						},
						{
							"indexed": true,
							"internalType": "address",
							"name": "newOwner",
							"type": "address"
						}
					],
					"name": "OwnerSet",
					"type": "event"
				},
				{
					"anonymous": false,
					"inputs": [
						{
							"indexed": false,
							"internalType": "uint256",
							"name": "proposalId",
							"type": "uint256"
						},
						{
							"indexed": false,
							"internalType": "uint256",
							"name": "votes",
							"type": "uint256"
						},
						{
							"indexed": false,
							"internalType": "address",
							"name": "voter",
							"type": "address"
						}
					],
					"name": "ProposalVoted",
					"type": "event"
				},
				{
					"inputs": [
						{
							"internalType": "uint256[]",
							"name": "_proposalIds",
							"type": "uint256[]"
						}
					],
					"name": "addProposals",
					"outputs": [],
					"stateMutability": "nonpayable",
					"type": "function"
				},
				{
					"inputs": [],
					"name": "calculateWinner",
					"outputs": [
						{
							"internalType": "uint256",
							"name": "proposalId",
							"type": "uint256"
						}
					],
					"stateMutability": "view",
					"type": "function"
				},
				{
					"inputs": [
						{
							"internalType": "address",
							"name": "newOwner",
							"type": "address"
						}
					],
					"name": "changeOwner",
					"outputs": [],
					"stateMutability": "nonpayable",
					"type": "function"
				},
				{
					"inputs": [
						{
							"internalType": "address[]",
							"name": "voters",
							"type": "address[]"
						}
					],
					"name": "giveVoterRights",
					"outputs": [],
					"stateMutability": "nonpayable",
					"type": "function"
				},
				{
					"inputs": [],
					"name": "owner",
					"outputs": [
						{
							"internalType": "address",
							"name": "",
							"type": "address"
						}
					],
					"stateMutability": "view",
					"type": "function"
				},
				{
					"inputs": [
						{
							"internalType": "uint256",
							"name": "",
							"type": "uint256"
						}
					],
					"name": "proposalIds",
					"outputs": [
						{
							"internalType": "uint256",
							"name": "",
							"type": "uint256"
						}
					],
					"stateMutability": "view",
					"type": "function"
				},
				{
					"inputs": [
						{
							"internalType": "uint256",
							"name": "",
							"type": "uint256"
						}
					],
					"name": "proposals",
					"outputs": [
						{
							"internalType": "uint256",
							"name": "",
							"type": "uint256"
						}
					],
					"stateMutability": "view",
					"type": "function"
				},
				{
					"inputs": [
						{
							"internalType": "uint256",
							"name": "proposalId",
							"type": "uint256"
						}
					],
					"name": "vote",
					"outputs": [],
					"stateMutability": "nonpayable",
					"type": "function"
				},
				{
					"inputs": [
						{
							"internalType": "address",
							"name": "",
							"type": "address"
						}
					],
					"name": "voterRights",
					"outputs": [
						{
							"internalType": "bool",
							"name": "",
							"type": "bool"
						}
					],
					"stateMutability": "view",
					"type": "function"
				}
			],
			"devdoc": {
				"kind": "dev",
				"methods": {
					"changeOwner(address)": {
						"details": "Change owner",
						"params": {
							"newOwner": "address of new owner"
						}
					}
				},
				"version": 1
			},
			"evm": {
				"assembly": "    /* \"voting_howest1.sol\":1838:3554  contract Voting is Owner {... */\n  mstore(0x40, 0x80)\n  callvalue\n  dup1\n  iszero\n  tag_1\n  jumpi\n  0x00\n  dup1\n  revert\ntag_1:\n  pop\n    /* \"voting_howest1.sol\":977:987  msg.sender */\n  caller\n    /* \"voting_howest1.sol\":969:974  owner */\n  0x00\n  dup1\n    /* \"voting_howest1.sol\":969:987  owner = msg.sender */\n  0x0100\n  exp\n  dup2\n  sload\n  dup2\n  0xffffffffffffffffffffffffffffffffffffffff\n  mul\n  not\n  and\n  swap1\n  dup4\n  0xffffffffffffffffffffffffffffffffffffffff\n  and\n  mul\n  or\n  swap1\n  sstore\n  pop\n    /* \"voting_howest1.sol\":1103:1108  owner */\n  0x00\n  dup1\n  sload\n  swap1\n  0x0100\n  exp\n  swap1\n  div\n  0xffffffffffffffffffffffffffffffffffffffff\n  and\n    /* \"voting_howest1.sol\":1082:1109  OwnerSet(address(0), owner) */\n  0xffffffffffffffffffffffffffffffffffffffff\n  and\n    /* \"voting_howest1.sol\":1099:1100  0 */\n  0x00\n    /* \"voting_howest1.sol\":1082:1109  OwnerSet(address(0), owner) */\n  0xffffffffffffffffffffffffffffffffffffffff\n  and\n  0x342827c97908e5e2f71151c08502a66d44b6f758e3ac2f1de95f02eb95f0a735\n  mload(0x40)\n  mload(0x40)\n  dup1\n  swap2\n  sub\n  swap1\n  log3\n    /* \"voting_howest1.sol\":1838:3554  contract Voting is Owner {... */\n  dataSize(sub_0)\n  dup1\n  dataOffset(sub_0)\n  0x00\n  codecopy\n  0x00\n  return\nstop\n\nsub_0: assembly {\n        /* \"voting_howest1.sol\":1838:3554  contract Voting is Owner {... */\n      mstore(0x40, 0x80)\n      callvalue\n      dup1\n      iszero\n      tag_1\n      jumpi\n      0x00\n      dup1\n      revert\n    tag_1:\n      pop\n      jumpi(tag_2, lt(calldatasize, 0x04))\n      shr(0xe0, calldataload(0x00))\n      dup1\n      0x8da5cb5b\n      gt\n      tag_12\n      jumpi\n      dup1\n      0x8da5cb5b\n      eq\n      tag_7\n      jumpi\n      dup1\n      0x9b644a23\n      eq\n      tag_8\n      jumpi\n      dup1\n      0x9bee3d10\n      eq\n      tag_9\n      jumpi\n      dup1\n      0xa6f9dae1\n      eq\n      tag_10\n      jumpi\n      dup1\n      0xea35e805\n      eq\n      tag_11\n      jumpi\n      jump(tag_2)\n    tag_12:\n      dup1\n      0x0121b93f\n      eq\n      tag_3\n      jumpi\n      dup1\n      0x013cf08b\n      eq\n      tag_4\n      jumpi\n      dup1\n      0x1ad1c9e9\n      eq\n      tag_5\n      jumpi\n      dup1\n      0x29eb7fb5\n      eq\n      tag_6\n      jumpi\n    tag_2:\n      0x00\n      dup1\n      revert\n        /* \"voting_howest1.sol\":2403:2629  function vote(uint proposalId) public canVote {... */\n    tag_3:\n      tag_13\n      0x04\n      dup1\n      calldatasize\n      sub\n      dup2\n      add\n      swap1\n      tag_14\n      swap2\n      swap1\n      tag_15\n      jump\t// in\n    tag_14:\n      tag_16\n      jump\t// in\n    tag_13:\n      stop\n        /* \"voting_howest1.sol\":1919:1957  mapping(uint => uint) public proposals */\n    tag_4:\n      tag_17\n      0x04\n      dup1\n      calldatasize\n      sub\n      dup2\n      add\n      swap1\n      tag_18\n      swap2\n      swap1\n      tag_15\n      jump\t// in\n    tag_18:\n      tag_19\n      jump\t// in\n    tag_17:\n      mload(0x40)\n      tag_20\n      swap2\n      swap1\n      tag_21\n      jump\t// in\n    tag_20:\n      mload(0x40)\n      dup1\n      swap2\n      sub\n      swap1\n      return\n        /* \"voting_howest1.sol\":2641:2820  function giveVoterRights(address[] memory voters) public isOwner {... */\n    tag_5:\n      tag_22\n      0x04\n      dup1\n      calldatasize\n      sub\n      dup2\n      add\n      swap1\n      tag_23\n      swap2\n      swap1\n      tag_24\n      jump\t// in\n    tag_23:\n      tag_25\n      jump\t// in\n    tag_22:\n      stop\n        /* \"voting_howest1.sol\":2832:3013  function addProposals(uint[] memory _proposalIds) public {... */\n    tag_6:\n      tag_26\n      0x04\n      dup1\n      calldatasize\n      sub\n      dup2\n      add\n      swap1\n      tag_27\n      swap2\n      swap1\n      tag_28\n      jump\t// in\n    tag_27:\n      tag_29\n      jump\t// in\n    tag_26:\n      stop\n        /* \"voting_howest1.sol\":146:166  address public owner */\n    tag_7:\n      tag_30\n      tag_31\n      jump\t// in\n    tag_30:\n      mload(0x40)\n      tag_32\n      swap2\n      swap1\n      tag_33\n      jump\t// in\n    tag_32:\n      mload(0x40)\n      dup1\n      swap2\n      sub\n      swap1\n      return\n        /* \"voting_howest1.sol\":1996:2021  uint[] public proposalIds */\n    tag_8:\n      tag_34\n      0x04\n      dup1\n      calldatasize\n      sub\n      dup2\n      add\n      swap1\n      tag_35\n      swap2\n      swap1\n      tag_15\n      jump\t// in\n    tag_35:\n      tag_36\n      jump\t// in\n    tag_34:\n      mload(0x40)\n      tag_37\n      swap2\n      swap1\n      tag_21\n      jump\t// in\n    tag_37:\n      mload(0x40)\n      dup1\n      swap2\n      sub\n      swap1\n      return\n        /* \"voting_howest1.sol\":2157:2200  mapping(address => bool) public voterRights */\n    tag_9:\n      tag_38\n      0x04\n      dup1\n      calldatasize\n      sub\n      dup2\n      add\n      swap1\n      tag_39\n      swap2\n      swap1\n      tag_40\n      jump\t// in\n    tag_39:\n      tag_41\n      jump\t// in\n    tag_38:\n      mload(0x40)\n      tag_42\n      swap2\n      swap1\n      tag_43\n      jump\t// in\n    tag_42:\n      mload(0x40)\n      dup1\n      swap2\n      sub\n      swap1\n      return\n        /* \"voting_howest1.sol\":1214:1344  function changeOwner(address newOwner) public isOwner {... */\n    tag_10:\n      tag_44\n      0x04\n      dup1\n      calldatasize\n      sub\n      dup2\n      add\n      swap1\n      tag_45\n      swap2\n      swap1\n      tag_40\n      jump\t// in\n    tag_45:\n      tag_46\n      jump\t// in\n    tag_44:\n      stop\n        /* \"voting_howest1.sol\":3025:3551  function calculateWinner() public view returns (uint proposalId) {... */\n    tag_11:\n      tag_47\n      tag_48\n      jump\t// in\n    tag_47:\n      mload(0x40)\n      tag_49\n      swap2\n      swap1\n      tag_21\n      jump\t// in\n    tag_49:\n      mload(0x40)\n      dup1\n      swap2\n      sub\n      swap1\n      return\n        /* \"voting_howest1.sol\":2403:2629  function vote(uint proposalId) public canVote {... */\n    tag_16:\n        /* \"voting_howest1.sol\":2327:2338  voterRights */\n      0x03\n        /* \"voting_howest1.sol\":2327:2350  voterRights[msg.sender] */\n      0x00\n        /* \"voting_howest1.sol\":2339:2349  msg.sender */\n      caller\n        /* \"voting_howest1.sol\":2327:2350  voterRights[msg.sender] */\n      0xffffffffffffffffffffffffffffffffffffffff\n      and\n      0xffffffffffffffffffffffffffffffffffffffff\n      and\n      dup2\n      mstore\n      0x20\n      add\n      swap1\n      dup2\n      mstore\n      0x20\n      add\n      0x00\n      keccak256\n      0x00\n      swap1\n      sload\n      swap1\n      0x0100\n      exp\n      swap1\n      div\n      0xff\n      and\n        /* \"voting_howest1.sol\":2319:2371  require(voterRights[msg.sender], \"You may not vote\") */\n      tag_51\n      jumpi\n      mload(0x40)\n      0x08c379a000000000000000000000000000000000000000000000000000000000\n      dup2\n      mstore\n      0x04\n      add\n      tag_52\n      swap1\n      tag_53\n      jump\t// in\n    tag_52:\n      mload(0x40)\n      dup1\n      swap2\n      sub\n      swap1\n      revert\n    tag_51:\n        /* \"voting_howest1.sol\":2460:2469  proposals */\n      0x01\n        /* \"voting_howest1.sol\":2460:2481  proposals[proposalId] */\n      0x00\n        /* \"voting_howest1.sol\":2470:2480  proposalId */\n      dup3\n        /* \"voting_howest1.sol\":2460:2481  proposals[proposalId] */\n      dup2\n      mstore\n      0x20\n      add\n      swap1\n      dup2\n      mstore\n      0x20\n      add\n      0x00\n      keccak256\n      0x00\n        /* \"voting_howest1.sol\":2460:2483  proposals[proposalId]++ */\n      dup2\n      sload\n      dup1\n      swap3\n      swap2\n      swap1\n      tag_55\n      swap1\n      tag_56\n      jump\t// in\n    tag_55:\n      swap2\n      swap1\n      pop\n      sstore\n      pop\n        /* \"voting_howest1.sol\":2530:2535  false */\n      0x00\n        /* \"voting_howest1.sol\":2504:2515  voterRights */\n      0x03\n        /* \"voting_howest1.sol\":2504:2527  voterRights[msg.sender] */\n      0x00\n        /* \"voting_howest1.sol\":2516:2526  msg.sender */\n      caller\n        /* \"voting_howest1.sol\":2504:2527  voterRights[msg.sender] */\n      0xffffffffffffffffffffffffffffffffffffffff\n      and\n      0xffffffffffffffffffffffffffffffffffffffff\n      and\n      dup2\n      mstore\n      0x20\n      add\n      swap1\n      dup2\n      mstore\n      0x20\n      add\n      0x00\n      keccak256\n      0x00\n        /* \"voting_howest1.sol\":2504:2535  voterRights[msg.sender] = false */\n      0x0100\n      exp\n      dup2\n      sload\n      dup2\n      0xff\n      mul\n      not\n      and\n      swap1\n      dup4\n      iszero\n      iszero\n      mul\n      or\n      swap1\n      sstore\n      pop\n        /* \"voting_howest1.sol\":2561:2621  ProposalVoted(proposalId, proposals[proposalId], msg.sender) */\n      0x4cc53fbb0c3386a0a08451e0710dd6dfaf4631121566865cfbfc744bdb1f2512\n        /* \"voting_howest1.sol\":2575:2585  proposalId */\n      dup2\n        /* \"voting_howest1.sol\":2587:2596  proposals */\n      0x01\n        /* \"voting_howest1.sol\":2587:2608  proposals[proposalId] */\n      0x00\n        /* \"voting_howest1.sol\":2597:2607  proposalId */\n      dup5\n        /* \"voting_howest1.sol\":2587:2608  proposals[proposalId] */\n      dup2\n      mstore\n      0x20\n      add\n      swap1\n      dup2\n      mstore\n      0x20\n      add\n      0x00\n      keccak256\n      sload\n        /* \"voting_howest1.sol\":2610:2620  msg.sender */\n      caller\n        /* \"voting_howest1.sol\":2561:2621  ProposalVoted(proposalId, proposals[proposalId], msg.sender) */\n      mload(0x40)\n      tag_57\n      swap4\n      swap3\n      swap2\n      swap1\n      tag_58\n      jump\t// in\n    tag_57:\n      mload(0x40)\n      dup1\n      swap2\n      sub\n      swap1\n      log1\n        /* \"voting_howest1.sol\":2403:2629  function vote(uint proposalId) public canVote {... */\n      pop\n      jump\t// out\n        /* \"voting_howest1.sol\":1919:1957  mapping(uint => uint) public proposals */\n    tag_19:\n      mstore(0x20, 0x01)\n      dup1\n      0x00\n      mstore\n      keccak256(0x00, 0x40)\n      0x00\n      swap2\n      pop\n      swap1\n      pop\n      sload\n      dup2\n      jump\t// out\n        /* \"voting_howest1.sol\":2641:2820  function giveVoterRights(address[] memory voters) public isOwner {... */\n    tag_25:\n        /* \"voting_howest1.sol\":821:826  owner */\n      0x00\n      dup1\n      sload\n      swap1\n      0x0100\n      exp\n      swap1\n      div\n      0xffffffffffffffffffffffffffffffffffffffff\n      and\n        /* \"voting_howest1.sol\":807:826  msg.sender == owner */\n      0xffffffffffffffffffffffffffffffffffffffff\n      and\n        /* \"voting_howest1.sol\":807:817  msg.sender */\n      caller\n        /* \"voting_howest1.sol\":807:826  msg.sender == owner */\n      0xffffffffffffffffffffffffffffffffffffffff\n      and\n      eq\n        /* \"voting_howest1.sol\":799:850  require(msg.sender == owner, \"Caller is not owner\") */\n      tag_60\n      jumpi\n      mload(0x40)\n      0x08c379a000000000000000000000000000000000000000000000000000000000\n      dup2\n      mstore\n      0x04\n      add\n      tag_61\n      swap1\n      tag_62\n      jump\t// in\n    tag_61:\n      mload(0x40)\n      dup1\n      swap2\n      sub\n      swap1\n      revert\n    tag_60:\n        /* \"voting_howest1.sol\":2721:2727  uint i */\n      0x00\n        /* \"voting_howest1.sol\":2717:2813  for(uint i = 0; i < voters.length; i++) {... */\n    tag_64:\n        /* \"voting_howest1.sol\":2737:2743  voters */\n      dup2\n        /* \"voting_howest1.sol\":2737:2750  voters.length */\n      mload\n        /* \"voting_howest1.sol\":2733:2734  i */\n      dup2\n        /* \"voting_howest1.sol\":2733:2750  i < voters.length */\n      lt\n        /* \"voting_howest1.sol\":2717:2813  for(uint i = 0; i < voters.length; i++) {... */\n      iszero\n      tag_65\n      jumpi\n        /* \"voting_howest1.sol\":2797:2801  true */\n      0x01\n        /* \"voting_howest1.sol\":2772:2783  voterRights */\n      0x03\n        /* \"voting_howest1.sol\":2772:2794  voterRights[voters[i]] */\n      0x00\n        /* \"voting_howest1.sol\":2784:2790  voters */\n      dup5\n        /* \"voting_howest1.sol\":2791:2792  i */\n      dup5\n        /* \"voting_howest1.sol\":2784:2793  voters[i] */\n      dup2\n      mload\n      dup2\n      lt\n      tag_67\n      jumpi\n      tag_68\n      tag_69\n      jump\t// in\n    tag_68:\n    tag_67:\n      0x20\n      mul\n      0x20\n      add\n      add\n      mload\n        /* \"voting_howest1.sol\":2772:2794  voterRights[voters[i]] */\n      0xffffffffffffffffffffffffffffffffffffffff\n      and\n      0xffffffffffffffffffffffffffffffffffffffff\n      and\n      dup2\n      mstore\n      0x20\n      add\n      swap1\n      dup2\n      mstore\n      0x20\n      add\n      0x00\n      keccak256\n      0x00\n        /* \"voting_howest1.sol\":2772:2801  voterRights[voters[i]] = true */\n      0x0100\n      exp\n      dup2\n      sload\n      dup2\n      0xff\n      mul\n      not\n      and\n      swap1\n      dup4\n      iszero\n      iszero\n      mul\n      or\n      swap1\n      sstore\n      pop\n        /* \"voting_howest1.sol\":2752:2755  i++ */\n      dup1\n      dup1\n      tag_70\n      swap1\n      tag_56\n      jump\t// in\n    tag_70:\n      swap2\n      pop\n      pop\n        /* \"voting_howest1.sol\":2717:2813  for(uint i = 0; i < voters.length; i++) {... */\n      jump(tag_64)\n    tag_65:\n      pop\n        /* \"voting_howest1.sol\":2641:2820  function giveVoterRights(address[] memory voters) public isOwner {... */\n      pop\n      jump\t// out\n        /* \"voting_howest1.sol\":2832:3013  function addProposals(uint[] memory _proposalIds) public {... */\n    tag_29:\n        /* \"voting_howest1.sol\":2904:2910  uint i */\n      0x00\n        /* \"voting_howest1.sol\":2900:3006  for(uint i = 0; i < _proposalIds.length; i++) {... */\n    tag_72:\n        /* \"voting_howest1.sol\":2920:2932  _proposalIds */\n      dup2\n        /* \"voting_howest1.sol\":2920:2939  _proposalIds.length */\n      mload\n        /* \"voting_howest1.sol\":2916:2917  i */\n      dup2\n        /* \"voting_howest1.sol\":2916:2939  i < _proposalIds.length */\n      lt\n        /* \"voting_howest1.sol\":2900:3006  for(uint i = 0; i < _proposalIds.length; i++) {... */\n      iszero\n      tag_73\n      jumpi\n        /* \"voting_howest1.sol\":2961:2972  proposalIds */\n      0x02\n        /* \"voting_howest1.sol\":2978:2990  _proposalIds */\n      dup3\n        /* \"voting_howest1.sol\":2991:2992  i */\n      dup3\n        /* \"voting_howest1.sol\":2978:2993  _proposalIds[i] */\n      dup2\n      mload\n      dup2\n      lt\n      tag_75\n      jumpi\n      tag_76\n      tag_69\n      jump\t// in\n    tag_76:\n    tag_75:\n      0x20\n      mul\n      0x20\n      add\n      add\n      mload\n        /* \"voting_howest1.sol\":2961:2994  proposalIds.push(_proposalIds[i]) */\n      swap1\n      dup1\n      0x01\n      dup2\n      sload\n      add\n      dup1\n      dup3\n      sstore\n      dup1\n      swap2\n      pop\n      pop\n      0x01\n      swap1\n      sub\n      swap1\n      0x00\n      mstore\n      keccak256(0x00, 0x20)\n      add\n      0x00\n      swap1\n      swap2\n      swap1\n      swap2\n      swap1\n      swap2\n      pop\n      sstore\n        /* \"voting_howest1.sol\":2941:2944  i++ */\n      dup1\n      dup1\n      tag_78\n      swap1\n      tag_56\n      jump\t// in\n    tag_78:\n      swap2\n      pop\n      pop\n        /* \"voting_howest1.sol\":2900:3006  for(uint i = 0; i < _proposalIds.length; i++) {... */\n      jump(tag_72)\n    tag_73:\n      pop\n        /* \"voting_howest1.sol\":2832:3013  function addProposals(uint[] memory _proposalIds) public {... */\n      pop\n      jump\t// out\n        /* \"voting_howest1.sol\":146:166  address public owner */\n    tag_31:\n      0x00\n      dup1\n      sload\n      swap1\n      0x0100\n      exp\n      swap1\n      div\n      0xffffffffffffffffffffffffffffffffffffffff\n      and\n      dup2\n      jump\t// out\n        /* \"voting_howest1.sol\":1996:2021  uint[] public proposalIds */\n    tag_36:\n      0x02\n      dup2\n      dup2\n      sload\n      dup2\n      lt\n      tag_79\n      jumpi\n      0x00\n      dup1\n      revert\n    tag_79:\n      swap1\n      0x00\n      mstore\n      keccak256(0x00, 0x20)\n      add\n      0x00\n      swap2\n      pop\n      swap1\n      pop\n      sload\n      dup2\n      jump\t// out\n        /* \"voting_howest1.sol\":2157:2200  mapping(address => bool) public voterRights */\n    tag_41:\n      mstore(0x20, 0x03)\n      dup1\n      0x00\n      mstore\n      keccak256(0x00, 0x40)\n      0x00\n      swap2\n      pop\n      sload\n      swap1\n      0x0100\n      exp\n      swap1\n      div\n      0xff\n      and\n      dup2\n      jump\t// out\n        /* \"voting_howest1.sol\":1214:1344  function changeOwner(address newOwner) public isOwner {... */\n    tag_46:\n        /* \"voting_howest1.sol\":821:826  owner */\n      0x00\n      dup1\n      sload\n      swap1\n      0x0100\n      exp\n      swap1\n      div\n      0xffffffffffffffffffffffffffffffffffffffff\n      and\n        /* \"voting_howest1.sol\":807:826  msg.sender == owner */\n      0xffffffffffffffffffffffffffffffffffffffff\n      and\n        /* \"voting_howest1.sol\":807:817  msg.sender */\n      caller\n        /* \"voting_howest1.sol\":807:826  msg.sender == owner */\n      0xffffffffffffffffffffffffffffffffffffffff\n      and\n      eq\n        /* \"voting_howest1.sol\":799:850  require(msg.sender == owner, \"Caller is not owner\") */\n      tag_82\n      jumpi\n      mload(0x40)\n      0x08c379a000000000000000000000000000000000000000000000000000000000\n      dup2\n      mstore\n      0x04\n      add\n      tag_83\n      swap1\n      tag_62\n      jump\t// in\n    tag_83:\n      mload(0x40)\n      dup1\n      swap2\n      sub\n      swap1\n      revert\n    tag_82:\n        /* \"voting_howest1.sol\":1300:1308  newOwner */\n      dup1\n        /* \"voting_howest1.sol\":1284:1309  OwnerSet(owner, newOwner) */\n      0xffffffffffffffffffffffffffffffffffffffff\n      and\n        /* \"voting_howest1.sol\":1293:1298  owner */\n      0x00\n      dup1\n      sload\n      swap1\n      0x0100\n      exp\n      swap1\n      div\n      0xffffffffffffffffffffffffffffffffffffffff\n      and\n        /* \"voting_howest1.sol\":1284:1309  OwnerSet(owner, newOwner) */\n      0xffffffffffffffffffffffffffffffffffffffff\n      and\n      0x342827c97908e5e2f71151c08502a66d44b6f758e3ac2f1de95f02eb95f0a735\n      mload(0x40)\n      mload(0x40)\n      dup1\n      swap2\n      sub\n      swap1\n      log3\n        /* \"voting_howest1.sol\":1328:1336  newOwner */\n      dup1\n        /* \"voting_howest1.sol\":1320:1325  owner */\n      0x00\n      dup1\n        /* \"voting_howest1.sol\":1320:1336  owner = newOwner */\n      0x0100\n      exp\n      dup2\n      sload\n      dup2\n      0xffffffffffffffffffffffffffffffffffffffff\n      mul\n      not\n      and\n      swap1\n      dup4\n      0xffffffffffffffffffffffffffffffffffffffff\n      and\n      mul\n      or\n      swap1\n      sstore\n      pop\n        /* \"voting_howest1.sol\":1214:1344  function changeOwner(address newOwner) public isOwner {... */\n      pop\n      jump\t// out\n        /* \"voting_howest1.sol\":3025:3551  function calculateWinner() public view returns (uint proposalId) {... */\n    tag_48:\n        /* \"voting_howest1.sol\":3073:3088  uint proposalId */\n      0x00\n        /* \"voting_howest1.sol\":3101:3121  uint winningProposal */\n      dup1\n        /* \"voting_howest1.sol\":3124:3135  proposalIds */\n      0x02\n        /* \"voting_howest1.sol\":3136:3137  0 */\n      0x00\n        /* \"voting_howest1.sol\":3124:3138  proposalIds[0] */\n      dup2\n      sload\n      dup2\n      lt\n      tag_86\n      jumpi\n      tag_87\n      tag_69\n      jump\t// in\n    tag_87:\n    tag_86:\n      swap1\n      0x00\n      mstore\n      keccak256(0x00, 0x20)\n      add\n      sload\n        /* \"voting_howest1.sol\":3101:3138  uint winningProposal = proposalIds[0] */\n      swap1\n      pop\n        /* \"voting_howest1.sol\":3149:3174  uint winningProposalVotes */\n      0x00\n        /* \"voting_howest1.sol\":3189:3195  uint i */\n      dup1\n        /* \"voting_howest1.sol\":3198:3199  0 */\n      0x00\n        /* \"voting_howest1.sol\":3189:3199  uint i = 0 */\n      swap1\n      pop\n        /* \"voting_howest1.sol\":3185:3501  for(uint i = 0; i < proposalIds.length; i++) {... */\n    tag_89:\n        /* \"voting_howest1.sol\":3205:3216  proposalIds */\n      0x02\n        /* \"voting_howest1.sol\":3205:3223  proposalIds.length */\n      dup1\n      sload\n      swap1\n      pop\n        /* \"voting_howest1.sol\":3201:3202  i */\n      dup2\n        /* \"voting_howest1.sol\":3201:3223  i < proposalIds.length */\n      lt\n        /* \"voting_howest1.sol\":3185:3501  for(uint i = 0; i < proposalIds.length; i++) {... */\n      iszero\n      tag_90\n      jumpi\n        /* \"voting_howest1.sol\":3245:3270  uint currentProposalVotes */\n      0x00\n        /* \"voting_howest1.sol\":3273:3282  proposals */\n      0x01\n        /* \"voting_howest1.sol\":3273:3298  proposals[proposalIds[i]] */\n      0x00\n        /* \"voting_howest1.sol\":3283:3294  proposalIds */\n      0x02\n        /* \"voting_howest1.sol\":3295:3296  i */\n      dup5\n        /* \"voting_howest1.sol\":3283:3297  proposalIds[i] */\n      dup2\n      sload\n      dup2\n      lt\n      tag_92\n      jumpi\n      tag_93\n      tag_69\n      jump\t// in\n    tag_93:\n    tag_92:\n      swap1\n      0x00\n      mstore\n      keccak256(0x00, 0x20)\n      add\n      sload\n        /* \"voting_howest1.sol\":3273:3298  proposals[proposalIds[i]] */\n      dup2\n      mstore\n      0x20\n      add\n      swap1\n      dup2\n      mstore\n      0x20\n      add\n      0x00\n      keccak256\n      sload\n        /* \"voting_howest1.sol\":3245:3298  uint currentProposalVotes = proposals[proposalIds[i]] */\n      swap1\n      pop\n        /* \"voting_howest1.sol\":3339:3359  winningProposalVotes */\n      dup3\n        /* \"voting_howest1.sol\":3316:3336  currentProposalVotes */\n      dup2\n        /* \"voting_howest1.sol\":3316:3359  currentProposalVotes > winningProposalVotes */\n      gt\n        /* \"voting_howest1.sol\":3313:3490  if(currentProposalVotes > winningProposalVotes) {... */\n      iszero\n      tag_95\n      jumpi\n        /* \"voting_howest1.sol\":3403:3423  currentProposalVotes */\n      dup1\n        /* \"voting_howest1.sol\":3380:3423  winningProposalVotes = currentProposalVotes */\n      swap3\n      pop\n        /* \"voting_howest1.sol\":3460:3471  proposalIds */\n      0x02\n        /* \"voting_howest1.sol\":3472:3473  i */\n      dup3\n        /* \"voting_howest1.sol\":3460:3474  proposalIds[i] */\n      dup2\n      sload\n      dup2\n      lt\n      tag_96\n      jumpi\n      tag_97\n      tag_69\n      jump\t// in\n    tag_97:\n    tag_96:\n      swap1\n      0x00\n      mstore\n      keccak256(0x00, 0x20)\n      add\n      sload\n        /* \"voting_howest1.sol\":3442:3474  winningProposal = proposalIds[i] */\n      swap4\n      pop\n        /* \"voting_howest1.sol\":3313:3490  if(currentProposalVotes > winningProposalVotes) {... */\n    tag_95:\n        /* \"voting_howest1.sol\":3230:3501  {... */\n      pop\n        /* \"voting_howest1.sol\":3225:3228  i++ */\n      dup1\n      dup1\n      tag_99\n      swap1\n      tag_56\n      jump\t// in\n    tag_99:\n      swap2\n      pop\n      pop\n        /* \"voting_howest1.sol\":3185:3501  for(uint i = 0; i < proposalIds.length; i++) {... */\n      jump(tag_89)\n    tag_90:\n      pop\n        /* \"voting_howest1.sol\":3528:3543  winningProposal */\n      dup2\n        /* \"voting_howest1.sol\":3521:3543  return winningProposal */\n      swap3\n      pop\n      pop\n      pop\n        /* \"voting_howest1.sol\":3025:3551  function calculateWinner() public view returns (uint proposalId) {... */\n      swap1\n      jump\t// out\n        /* \"#utility.yul\":7:82   */\n    tag_100:\n        /* \"#utility.yul\":40:46   */\n      0x00\n        /* \"#utility.yul\":73:75   */\n      0x40\n        /* \"#utility.yul\":67:76   */\n      mload\n        /* \"#utility.yul\":57:76   */\n      swap1\n      pop\n        /* \"#utility.yul\":7:82   */\n      swap1\n      jump\t// out\n        /* \"#utility.yul\":88:205   */\n    tag_101:\n        /* \"#utility.yul\":197:198   */\n      0x00\n        /* \"#utility.yul\":194:195   */\n      dup1\n        /* \"#utility.yul\":187:199   */\n      revert\n        /* \"#utility.yul\":211:328   */\n    tag_102:\n        /* \"#utility.yul\":320:321   */\n      0x00\n        /* \"#utility.yul\":317:318   */\n      dup1\n        /* \"#utility.yul\":310:322   */\n      revert\n        /* \"#utility.yul\":334:411   */\n    tag_103:\n        /* \"#utility.yul\":371:378   */\n      0x00\n        /* \"#utility.yul\":400:405   */\n      dup2\n        /* \"#utility.yul\":389:405   */\n      swap1\n      pop\n        /* \"#utility.yul\":334:411   */\n      swap2\n      swap1\n      pop\n      jump\t// out\n        /* \"#utility.yul\":417:539   */\n    tag_104:\n        /* \"#utility.yul\":490:514   */\n      tag_138\n        /* \"#utility.yul\":508:513   */\n      dup2\n        /* \"#utility.yul\":490:514   */\n      tag_103\n      jump\t// in\n    tag_138:\n        /* \"#utility.yul\":483:488   */\n      dup2\n        /* \"#utility.yul\":480:515   */\n      eq\n        /* \"#utility.yul\":470:533   */\n      tag_139\n      jumpi\n        /* \"#utility.yul\":529:530   */\n      0x00\n        /* \"#utility.yul\":526:527   */\n      dup1\n        /* \"#utility.yul\":519:531   */\n      revert\n        /* \"#utility.yul\":470:533   */\n    tag_139:\n        /* \"#utility.yul\":417:539   */\n      pop\n      jump\t// out\n        /* \"#utility.yul\":545:684   */\n    tag_105:\n        /* \"#utility.yul\":591:596   */\n      0x00\n        /* \"#utility.yul\":629:635   */\n      dup2\n        /* \"#utility.yul\":616:636   */\n      calldataload\n        /* \"#utility.yul\":607:636   */\n      swap1\n      pop\n        /* \"#utility.yul\":645:678   */\n      tag_141\n        /* \"#utility.yul\":672:677   */\n      dup2\n        /* \"#utility.yul\":645:678   */\n      tag_104\n      jump\t// in\n    tag_141:\n        /* \"#utility.yul\":545:684   */\n      swap3\n      swap2\n      pop\n      pop\n      jump\t// out\n        /* \"#utility.yul\":690:1019   */\n    tag_15:\n        /* \"#utility.yul\":749:755   */\n      0x00\n        /* \"#utility.yul\":798:800   */\n      0x20\n        /* \"#utility.yul\":786:795   */\n      dup3\n        /* \"#utility.yul\":777:784   */\n      dup5\n        /* \"#utility.yul\":773:796   */\n      sub\n        /* \"#utility.yul\":769:801   */\n      slt\n        /* \"#utility.yul\":766:885   */\n      iszero\n      tag_143\n      jumpi\n        /* \"#utility.yul\":804:883   */\n      tag_144\n      tag_101\n      jump\t// in\n    tag_144:\n        /* \"#utility.yul\":766:885   */\n    tag_143:\n        /* \"#utility.yul\":924:925   */\n      0x00\n        /* \"#utility.yul\":949:1002   */\n      tag_145\n        /* \"#utility.yul\":994:1001   */\n      dup5\n        /* \"#utility.yul\":985:991   */\n      dup3\n        /* \"#utility.yul\":974:983   */\n      dup6\n        /* \"#utility.yul\":970:992   */\n      add\n        /* \"#utility.yul\":949:1002   */\n      tag_105\n      jump\t// in\n    tag_145:\n        /* \"#utility.yul\":939:1002   */\n      swap2\n      pop\n        /* \"#utility.yul\":895:1012   */\n      pop\n        /* \"#utility.yul\":690:1019   */\n      swap3\n      swap2\n      pop\n      pop\n      jump\t// out\n        /* \"#utility.yul\":1025:1143   */\n    tag_106:\n        /* \"#utility.yul\":1112:1136   */\n      tag_147\n        /* \"#utility.yul\":1130:1135   */\n      dup2\n        /* \"#utility.yul\":1112:1136   */\n      tag_103\n      jump\t// in\n    tag_147:\n        /* \"#utility.yul\":1107:1110   */\n      dup3\n        /* \"#utility.yul\":1100:1137   */\n      mstore\n        /* \"#utility.yul\":1025:1143   */\n      pop\n      pop\n      jump\t// out\n        /* \"#utility.yul\":1149:1371   */\n    tag_21:\n        /* \"#utility.yul\":1242:1246   */\n      0x00\n        /* \"#utility.yul\":1280:1282   */\n      0x20\n        /* \"#utility.yul\":1269:1278   */\n      dup3\n        /* \"#utility.yul\":1265:1283   */\n      add\n        /* \"#utility.yul\":1257:1283   */\n      swap1\n      pop\n        /* \"#utility.yul\":1293:1364   */\n      tag_149\n        /* \"#utility.yul\":1361:1362   */\n      0x00\n        /* \"#utility.yul\":1350:1359   */\n      dup4\n        /* \"#utility.yul\":1346:1363   */\n      add\n        /* \"#utility.yul\":1337:1343   */\n      dup5\n        /* \"#utility.yul\":1293:1364   */\n      tag_106\n      jump\t// in\n    tag_149:\n        /* \"#utility.yul\":1149:1371   */\n      swap3\n      swap2\n      pop\n      pop\n      jump\t// out\n        /* \"#utility.yul\":1377:1494   */\n    tag_107:\n        /* \"#utility.yul\":1486:1487   */\n      0x00\n        /* \"#utility.yul\":1483:1484   */\n      dup1\n        /* \"#utility.yul\":1476:1488   */\n      revert\n        /* \"#utility.yul\":1500:1602   */\n    tag_108:\n        /* \"#utility.yul\":1541:1547   */\n      0x00\n        /* \"#utility.yul\":1592:1594   */\n      0x1f\n        /* \"#utility.yul\":1588:1595   */\n      not\n        /* \"#utility.yul\":1583:1585   */\n      0x1f\n        /* \"#utility.yul\":1576:1581   */\n      dup4\n        /* \"#utility.yul\":1572:1586   */\n      add\n        /* \"#utility.yul\":1568:1596   */\n      and\n        /* \"#utility.yul\":1558:1596   */\n      swap1\n      pop\n        /* \"#utility.yul\":1500:1602   */\n      swap2\n      swap1\n      pop\n      jump\t// out\n        /* \"#utility.yul\":1608:1788   */\n    tag_109:\n        /* \"#utility.yul\":1656:1733   */\n      0x4e487b7100000000000000000000000000000000000000000000000000000000\n        /* \"#utility.yul\":1653:1654   */\n      0x00\n        /* \"#utility.yul\":1646:1734   */\n      mstore\n        /* \"#utility.yul\":1753:1757   */\n      0x41\n        /* \"#utility.yul\":1750:1751   */\n      0x04\n        /* \"#utility.yul\":1743:1758   */\n      mstore\n        /* \"#utility.yul\":1777:1781   */\n      0x24\n        /* \"#utility.yul\":1774:1775   */\n      0x00\n        /* \"#utility.yul\":1767:1782   */\n      revert\n        /* \"#utility.yul\":1794:2075   */\n    tag_110:\n        /* \"#utility.yul\":1877:1904   */\n      tag_154\n        /* \"#utility.yul\":1899:1903   */\n      dup3\n        /* \"#utility.yul\":1877:1904   */\n      tag_108\n      jump\t// in\n    tag_154:\n        /* \"#utility.yul\":1869:1875   */\n      dup2\n        /* \"#utility.yul\":1865:1905   */\n      add\n        /* \"#utility.yul\":2007:2013   */\n      dup2\n        /* \"#utility.yul\":1995:2005   */\n      dup2\n        /* \"#utility.yul\":1992:2014   */\n      lt\n        /* \"#utility.yul\":1971:1989   */\n      0xffffffffffffffff\n        /* \"#utility.yul\":1959:1969   */\n      dup3\n        /* \"#utility.yul\":1956:1990   */\n      gt\n        /* \"#utility.yul\":1953:2015   */\n      or\n        /* \"#utility.yul\":1950:2038   */\n      iszero\n      tag_155\n      jumpi\n        /* \"#utility.yul\":2018:2036   */\n      tag_156\n      tag_109\n      jump\t// in\n    tag_156:\n        /* \"#utility.yul\":1950:2038   */\n    tag_155:\n        /* \"#utility.yul\":2058:2068   */\n      dup1\n        /* \"#utility.yul\":2054:2056   */\n      0x40\n        /* \"#utility.yul\":2047:2069   */\n      mstore\n        /* \"#utility.yul\":1837:2075   */\n      pop\n        /* \"#utility.yul\":1794:2075   */\n      pop\n      pop\n      jump\t// out\n        /* \"#utility.yul\":2081:2210   */\n    tag_111:\n        /* \"#utility.yul\":2115:2121   */\n      0x00\n        /* \"#utility.yul\":2142:2162   */\n      tag_158\n      tag_100\n      jump\t// in\n    tag_158:\n        /* \"#utility.yul\":2132:2162   */\n      swap1\n      pop\n        /* \"#utility.yul\":2171:2204   */\n      tag_159\n        /* \"#utility.yul\":2199:2203   */\n      dup3\n        /* \"#utility.yul\":2191:2197   */\n      dup3\n        /* \"#utility.yul\":2171:2204   */\n      tag_110\n      jump\t// in\n    tag_159:\n        /* \"#utility.yul\":2081:2210   */\n      swap2\n      swap1\n      pop\n      jump\t// out\n        /* \"#utility.yul\":2216:2527   */\n    tag_112:\n        /* \"#utility.yul\":2293:2297   */\n      0x00\n        /* \"#utility.yul\":2383:2401   */\n      0xffffffffffffffff\n        /* \"#utility.yul\":2375:2381   */\n      dup3\n        /* \"#utility.yul\":2372:2402   */\n      gt\n        /* \"#utility.yul\":2369:2425   */\n      iszero\n      tag_161\n      jumpi\n        /* \"#utility.yul\":2405:2423   */\n      tag_162\n      tag_109\n      jump\t// in\n    tag_162:\n        /* \"#utility.yul\":2369:2425   */\n    tag_161:\n        /* \"#utility.yul\":2455:2459   */\n      0x20\n        /* \"#utility.yul\":2447:2453   */\n      dup3\n        /* \"#utility.yul\":2443:2460   */\n      mul\n        /* \"#utility.yul\":2435:2460   */\n      swap1\n      pop\n        /* \"#utility.yul\":2515:2519   */\n      0x20\n        /* \"#utility.yul\":2509:2513   */\n      dup2\n        /* \"#utility.yul\":2505:2520   */\n      add\n        /* \"#utility.yul\":2497:2520   */\n      swap1\n      pop\n        /* \"#utility.yul\":2216:2527   */\n      swap2\n      swap1\n      pop\n      jump\t// out\n        /* \"#utility.yul\":2533:2650   */\n    tag_113:\n        /* \"#utility.yul\":2642:2643   */\n      0x00\n        /* \"#utility.yul\":2639:2640   */\n      dup1\n        /* \"#utility.yul\":2632:2644   */\n      revert\n        /* \"#utility.yul\":2656:2782   */\n    tag_114:\n        /* \"#utility.yul\":2693:2700   */\n      0x00\n        /* \"#utility.yul\":2733:2775   */\n      0xffffffffffffffffffffffffffffffffffffffff\n        /* \"#utility.yul\":2726:2731   */\n      dup3\n        /* \"#utility.yul\":2722:2776   */\n      and\n        /* \"#utility.yul\":2711:2776   */\n      swap1\n      pop\n        /* \"#utility.yul\":2656:2782   */\n      swap2\n      swap1\n      pop\n      jump\t// out\n        /* \"#utility.yul\":2788:2884   */\n    tag_115:\n        /* \"#utility.yul\":2825:2832   */\n      0x00\n        /* \"#utility.yul\":2854:2878   */\n      tag_166\n        /* \"#utility.yul\":2872:2877   */\n      dup3\n        /* \"#utility.yul\":2854:2878   */\n      tag_114\n      jump\t// in\n    tag_166:\n        /* \"#utility.yul\":2843:2878   */\n      swap1\n      pop\n        /* \"#utility.yul\":2788:2884   */\n      swap2\n      swap1\n      pop\n      jump\t// out\n        /* \"#utility.yul\":2890:3012   */\n    tag_116:\n        /* \"#utility.yul\":2963:2987   */\n      tag_168\n        /* \"#utility.yul\":2981:2986   */\n      dup2\n        /* \"#utility.yul\":2963:2987   */\n      tag_115\n      jump\t// in\n    tag_168:\n        /* \"#utility.yul\":2956:2961   */\n      dup2\n        /* \"#utility.yul\":2953:2988   */\n      eq\n        /* \"#utility.yul\":2943:3006   */\n      tag_169\n      jumpi\n        /* \"#utility.yul\":3002:3003   */\n      0x00\n        /* \"#utility.yul\":2999:3000   */\n      dup1\n        /* \"#utility.yul\":2992:3004   */\n      revert\n        /* \"#utility.yul\":2943:3006   */\n    tag_169:\n        /* \"#utility.yul\":2890:3012   */\n      pop\n      jump\t// out\n        /* \"#utility.yul\":3018:3157   */\n    tag_117:\n        /* \"#utility.yul\":3064:3069   */\n      0x00\n        /* \"#utility.yul\":3102:3108   */\n      dup2\n        /* \"#utility.yul\":3089:3109   */\n      calldataload\n        /* \"#utility.yul\":3080:3109   */\n      swap1\n      pop\n        /* \"#utility.yul\":3118:3151   */\n      tag_171\n        /* \"#utility.yul\":3145:3150   */\n      dup2\n        /* \"#utility.yul\":3118:3151   */\n      tag_116\n      jump\t// in\n    tag_171:\n        /* \"#utility.yul\":3018:3157   */\n      swap3\n      swap2\n      pop\n      pop\n      jump\t// out\n        /* \"#utility.yul\":3180:3890   */\n    tag_118:\n        /* \"#utility.yul\":3276:3281   */\n      0x00\n        /* \"#utility.yul\":3301:3382   */\n      tag_173\n        /* \"#utility.yul\":3317:3381   */\n      tag_174\n        /* \"#utility.yul\":3374:3380   */\n      dup5\n        /* \"#utility.yul\":3317:3381   */\n      tag_112\n      jump\t// in\n    tag_174:\n        /* \"#utility.yul\":3301:3382   */\n      tag_111\n      jump\t// in\n    tag_173:\n        /* \"#utility.yul\":3292:3382   */\n      swap1\n      pop\n        /* \"#utility.yul\":3402:3407   */\n      dup1\n        /* \"#utility.yul\":3431:3437   */\n      dup4\n        /* \"#utility.yul\":3424:3429   */\n      dup3\n        /* \"#utility.yul\":3417:3438   */\n      mstore\n        /* \"#utility.yul\":3465:3469   */\n      0x20\n        /* \"#utility.yul\":3458:3463   */\n      dup3\n        /* \"#utility.yul\":3454:3470   */\n      add\n        /* \"#utility.yul\":3447:3470   */\n      swap1\n      pop\n        /* \"#utility.yul\":3518:3522   */\n      0x20\n        /* \"#utility.yul\":3510:3516   */\n      dup5\n        /* \"#utility.yul\":3506:3523   */\n      mul\n        /* \"#utility.yul\":3498:3504   */\n      dup4\n        /* \"#utility.yul\":3494:3524   */\n      add\n        /* \"#utility.yul\":3547:3550   */\n      dup6\n        /* \"#utility.yul\":3539:3545   */\n      dup2\n        /* \"#utility.yul\":3536:3551   */\n      gt\n        /* \"#utility.yul\":3533:3655   */\n      iszero\n      tag_175\n      jumpi\n        /* \"#utility.yul\":3566:3645   */\n      tag_176\n      tag_113\n      jump\t// in\n    tag_176:\n        /* \"#utility.yul\":3533:3655   */\n    tag_175:\n        /* \"#utility.yul\":3681:3687   */\n      dup4\n        /* \"#utility.yul\":3664:3884   */\n    tag_177:\n        /* \"#utility.yul\":3698:3704   */\n      dup2\n        /* \"#utility.yul\":3693:3696   */\n      dup2\n        /* \"#utility.yul\":3690:3705   */\n      lt\n        /* \"#utility.yul\":3664:3884   */\n      iszero\n      tag_179\n      jumpi\n        /* \"#utility.yul\":3773:3776   */\n      dup1\n        /* \"#utility.yul\":3802:3839   */\n      tag_180\n        /* \"#utility.yul\":3835:3838   */\n      dup9\n        /* \"#utility.yul\":3823:3833   */\n      dup3\n        /* \"#utility.yul\":3802:3839   */\n      tag_117\n      jump\t// in\n    tag_180:\n        /* \"#utility.yul\":3797:3800   */\n      dup5\n        /* \"#utility.yul\":3790:3840   */\n      mstore\n        /* \"#utility.yul\":3869:3873   */\n      0x20\n        /* \"#utility.yul\":3864:3867   */\n      dup5\n        /* \"#utility.yul\":3860:3874   */\n      add\n        /* \"#utility.yul\":3853:3874   */\n      swap4\n      pop\n        /* \"#utility.yul\":3740:3884   */\n      pop\n        /* \"#utility.yul\":3724:3728   */\n      0x20\n        /* \"#utility.yul\":3719:3722   */\n      dup2\n        /* \"#utility.yul\":3715:3729   */\n      add\n        /* \"#utility.yul\":3708:3729   */\n      swap1\n      pop\n        /* \"#utility.yul\":3664:3884   */\n      jump(tag_177)\n    tag_179:\n        /* \"#utility.yul\":3668:3689   */\n      pop\n        /* \"#utility.yul\":3282:3890   */\n      pop\n      pop\n        /* \"#utility.yul\":3180:3890   */\n      swap4\n      swap3\n      pop\n      pop\n      pop\n      jump\t// out\n        /* \"#utility.yul\":3913:4283   */\n    tag_119:\n        /* \"#utility.yul\":3984:3989   */\n      0x00\n        /* \"#utility.yul\":4033:4036   */\n      dup3\n        /* \"#utility.yul\":4026:4030   */\n      0x1f\n        /* \"#utility.yul\":4018:4024   */\n      dup4\n        /* \"#utility.yul\":4014:4031   */\n      add\n        /* \"#utility.yul\":4010:4037   */\n      slt\n        /* \"#utility.yul\":4000:4122   */\n      tag_182\n      jumpi\n        /* \"#utility.yul\":4041:4120   */\n      tag_183\n      tag_107\n      jump\t// in\n    tag_183:\n        /* \"#utility.yul\":4000:4122   */\n    tag_182:\n        /* \"#utility.yul\":4158:4164   */\n      dup2\n        /* \"#utility.yul\":4145:4165   */\n      calldataload\n        /* \"#utility.yul\":4183:4277   */\n      tag_184\n        /* \"#utility.yul\":4273:4276   */\n      dup5\n        /* \"#utility.yul\":4265:4271   */\n      dup3\n        /* \"#utility.yul\":4258:4262   */\n      0x20\n        /* \"#utility.yul\":4250:4256   */\n      dup7\n        /* \"#utility.yul\":4246:4263   */\n      add\n        /* \"#utility.yul\":4183:4277   */\n      tag_118\n      jump\t// in\n    tag_184:\n        /* \"#utility.yul\":4174:4277   */\n      swap2\n      pop\n        /* \"#utility.yul\":3990:4283   */\n      pop\n        /* \"#utility.yul\":3913:4283   */\n      swap3\n      swap2\n      pop\n      pop\n      jump\t// out\n        /* \"#utility.yul\":4289:4828   */\n    tag_24:\n        /* \"#utility.yul\":4373:4379   */\n      0x00\n        /* \"#utility.yul\":4422:4424   */\n      0x20\n        /* \"#utility.yul\":4410:4419   */\n      dup3\n        /* \"#utility.yul\":4401:4408   */\n      dup5\n        /* \"#utility.yul\":4397:4420   */\n      sub\n        /* \"#utility.yul\":4393:4425   */\n      slt\n        /* \"#utility.yul\":4390:4509   */\n      iszero\n      tag_186\n      jumpi\n        /* \"#utility.yul\":4428:4507   */\n      tag_187\n      tag_101\n      jump\t// in\n    tag_187:\n        /* \"#utility.yul\":4390:4509   */\n    tag_186:\n        /* \"#utility.yul\":4576:4577   */\n      0x00\n        /* \"#utility.yul\":4565:4574   */\n      dup3\n        /* \"#utility.yul\":4561:4578   */\n      add\n        /* \"#utility.yul\":4548:4579   */\n      calldataload\n        /* \"#utility.yul\":4606:4624   */\n      0xffffffffffffffff\n        /* \"#utility.yul\":4598:4604   */\n      dup2\n        /* \"#utility.yul\":4595:4625   */\n      gt\n        /* \"#utility.yul\":4592:4709   */\n      iszero\n      tag_188\n      jumpi\n        /* \"#utility.yul\":4628:4707   */\n      tag_189\n      tag_102\n      jump\t// in\n    tag_189:\n        /* \"#utility.yul\":4592:4709   */\n    tag_188:\n        /* \"#utility.yul\":4733:4811   */\n      tag_190\n        /* \"#utility.yul\":4803:4810   */\n      dup5\n        /* \"#utility.yul\":4794:4800   */\n      dup3\n        /* \"#utility.yul\":4783:4792   */\n      dup6\n        /* \"#utility.yul\":4779:4801   */\n      add\n        /* \"#utility.yul\":4733:4811   */\n      tag_119\n      jump\t// in\n    tag_190:\n        /* \"#utility.yul\":4723:4811   */\n      swap2\n      pop\n        /* \"#utility.yul\":4519:4821   */\n      pop\n        /* \"#utility.yul\":4289:4828   */\n      swap3\n      swap2\n      pop\n      pop\n      jump\t// out\n        /* \"#utility.yul\":4834:5145   */\n    tag_120:\n        /* \"#utility.yul\":4911:4915   */\n      0x00\n        /* \"#utility.yul\":5001:5019   */\n      0xffffffffffffffff\n        /* \"#utility.yul\":4993:4999   */\n      dup3\n        /* \"#utility.yul\":4990:5020   */\n      gt\n        /* \"#utility.yul\":4987:5043   */\n      iszero\n      tag_192\n      jumpi\n        /* \"#utility.yul\":5023:5041   */\n      tag_193\n      tag_109\n      jump\t// in\n    tag_193:\n        /* \"#utility.yul\":4987:5043   */\n    tag_192:\n        /* \"#utility.yul\":5073:5077   */\n      0x20\n        /* \"#utility.yul\":5065:5071   */\n      dup3\n        /* \"#utility.yul\":5061:5078   */\n      mul\n        /* \"#utility.yul\":5053:5078   */\n      swap1\n      pop\n        /* \"#utility.yul\":5133:5137   */\n      0x20\n        /* \"#utility.yul\":5127:5131   */\n      dup2\n        /* \"#utility.yul\":5123:5138   */\n      add\n        /* \"#utility.yul\":5115:5138   */\n      swap1\n      pop\n        /* \"#utility.yul\":4834:5145   */\n      swap2\n      swap1\n      pop\n      jump\t// out\n        /* \"#utility.yul\":5168:5878   */\n    tag_121:\n        /* \"#utility.yul\":5264:5269   */\n      0x00\n        /* \"#utility.yul\":5289:5370   */\n      tag_195\n        /* \"#utility.yul\":5305:5369   */\n      tag_196\n        /* \"#utility.yul\":5362:5368   */\n      dup5\n        /* \"#utility.yul\":5305:5369   */\n      tag_120\n      jump\t// in\n    tag_196:\n        /* \"#utility.yul\":5289:5370   */\n      tag_111\n      jump\t// in\n    tag_195:\n        /* \"#utility.yul\":5280:5370   */\n      swap1\n      pop\n        /* \"#utility.yul\":5390:5395   */\n      dup1\n        /* \"#utility.yul\":5419:5425   */\n      dup4\n        /* \"#utility.yul\":5412:5417   */\n      dup3\n        /* \"#utility.yul\":5405:5426   */\n      mstore\n        /* \"#utility.yul\":5453:5457   */\n      0x20\n        /* \"#utility.yul\":5446:5451   */\n      dup3\n        /* \"#utility.yul\":5442:5458   */\n      add\n        /* \"#utility.yul\":5435:5458   */\n      swap1\n      pop\n        /* \"#utility.yul\":5506:5510   */\n      0x20\n        /* \"#utility.yul\":5498:5504   */\n      dup5\n        /* \"#utility.yul\":5494:5511   */\n      mul\n        /* \"#utility.yul\":5486:5492   */\n      dup4\n        /* \"#utility.yul\":5482:5512   */\n      add\n        /* \"#utility.yul\":5535:5538   */\n      dup6\n        /* \"#utility.yul\":5527:5533   */\n      dup2\n        /* \"#utility.yul\":5524:5539   */\n      gt\n        /* \"#utility.yul\":5521:5643   */\n      iszero\n      tag_197\n      jumpi\n        /* \"#utility.yul\":5554:5633   */\n      tag_198\n      tag_113\n      jump\t// in\n    tag_198:\n        /* \"#utility.yul\":5521:5643   */\n    tag_197:\n        /* \"#utility.yul\":5669:5675   */\n      dup4\n        /* \"#utility.yul\":5652:5872   */\n    tag_199:\n        /* \"#utility.yul\":5686:5692   */\n      dup2\n        /* \"#utility.yul\":5681:5684   */\n      dup2\n        /* \"#utility.yul\":5678:5693   */\n      lt\n        /* \"#utility.yul\":5652:5872   */\n      iszero\n      tag_201\n      jumpi\n        /* \"#utility.yul\":5761:5764   */\n      dup1\n        /* \"#utility.yul\":5790:5827   */\n      tag_202\n        /* \"#utility.yul\":5823:5826   */\n      dup9\n        /* \"#utility.yul\":5811:5821   */\n      dup3\n        /* \"#utility.yul\":5790:5827   */\n      tag_105\n      jump\t// in\n    tag_202:\n        /* \"#utility.yul\":5785:5788   */\n      dup5\n        /* \"#utility.yul\":5778:5828   */\n      mstore\n        /* \"#utility.yul\":5857:5861   */\n      0x20\n        /* \"#utility.yul\":5852:5855   */\n      dup5\n        /* \"#utility.yul\":5848:5862   */\n      add\n        /* \"#utility.yul\":5841:5862   */\n      swap4\n      pop\n        /* \"#utility.yul\":5728:5872   */\n      pop\n        /* \"#utility.yul\":5712:5716   */\n      0x20\n        /* \"#utility.yul\":5707:5710   */\n      dup2\n        /* \"#utility.yul\":5703:5717   */\n      add\n        /* \"#utility.yul\":5696:5717   */\n      swap1\n      pop\n        /* \"#utility.yul\":5652:5872   */\n      jump(tag_199)\n    tag_201:\n        /* \"#utility.yul\":5656:5677   */\n      pop\n        /* \"#utility.yul\":5270:5878   */\n      pop\n      pop\n        /* \"#utility.yul\":5168:5878   */\n      swap4\n      swap3\n      pop\n      pop\n      pop\n      jump\t// out\n        /* \"#utility.yul\":5901:6271   */\n    tag_122:\n        /* \"#utility.yul\":5972:5977   */\n      0x00\n        /* \"#utility.yul\":6021:6024   */\n      dup3\n        /* \"#utility.yul\":6014:6018   */\n      0x1f\n        /* \"#utility.yul\":6006:6012   */\n      dup4\n        /* \"#utility.yul\":6002:6019   */\n      add\n        /* \"#utility.yul\":5998:6025   */\n      slt\n        /* \"#utility.yul\":5988:6110   */\n      tag_204\n      jumpi\n        /* \"#utility.yul\":6029:6108   */\n      tag_205\n      tag_107\n      jump\t// in\n    tag_205:\n        /* \"#utility.yul\":5988:6110   */\n    tag_204:\n        /* \"#utility.yul\":6146:6152   */\n      dup2\n        /* \"#utility.yul\":6133:6153   */\n      calldataload\n        /* \"#utility.yul\":6171:6265   */\n      tag_206\n        /* \"#utility.yul\":6261:6264   */\n      dup5\n        /* \"#utility.yul\":6253:6259   */\n      dup3\n        /* \"#utility.yul\":6246:6250   */\n      0x20\n        /* \"#utility.yul\":6238:6244   */\n      dup7\n        /* \"#utility.yul\":6234:6251   */\n      add\n        /* \"#utility.yul\":6171:6265   */\n      tag_121\n      jump\t// in\n    tag_206:\n        /* \"#utility.yul\":6162:6265   */\n      swap2\n      pop\n        /* \"#utility.yul\":5978:6271   */\n      pop\n        /* \"#utility.yul\":5901:6271   */\n      swap3\n      swap2\n      pop\n      pop\n      jump\t// out\n        /* \"#utility.yul\":6277:6816   */\n    tag_28:\n        /* \"#utility.yul\":6361:6367   */\n      0x00\n        /* \"#utility.yul\":6410:6412   */\n      0x20\n        /* \"#utility.yul\":6398:6407   */\n      dup3\n        /* \"#utility.yul\":6389:6396   */\n      dup5\n        /* \"#utility.yul\":6385:6408   */\n      sub\n        /* \"#utility.yul\":6381:6413   */\n      slt\n        /* \"#utility.yul\":6378:6497   */\n      iszero\n      tag_208\n      jumpi\n        /* \"#utility.yul\":6416:6495   */\n      tag_209\n      tag_101\n      jump\t// in\n    tag_209:\n        /* \"#utility.yul\":6378:6497   */\n    tag_208:\n        /* \"#utility.yul\":6564:6565   */\n      0x00\n        /* \"#utility.yul\":6553:6562   */\n      dup3\n        /* \"#utility.yul\":6549:6566   */\n      add\n        /* \"#utility.yul\":6536:6567   */\n      calldataload\n        /* \"#utility.yul\":6594:6612   */\n      0xffffffffffffffff\n        /* \"#utility.yul\":6586:6592   */\n      dup2\n        /* \"#utility.yul\":6583:6613   */\n      gt\n        /* \"#utility.yul\":6580:6697   */\n      iszero\n      tag_210\n      jumpi\n        /* \"#utility.yul\":6616:6695   */\n      tag_211\n      tag_102\n      jump\t// in\n    tag_211:\n        /* \"#utility.yul\":6580:6697   */\n    tag_210:\n        /* \"#utility.yul\":6721:6799   */\n      tag_212\n        /* \"#utility.yul\":6791:6798   */\n      dup5\n        /* \"#utility.yul\":6782:6788   */\n      dup3\n        /* \"#utility.yul\":6771:6780   */\n      dup6\n        /* \"#utility.yul\":6767:6789   */\n      add\n        /* \"#utility.yul\":6721:6799   */\n      tag_122\n      jump\t// in\n    tag_212:\n        /* \"#utility.yul\":6711:6799   */\n      swap2\n      pop\n        /* \"#utility.yul\":6507:6809   */\n      pop\n        /* \"#utility.yul\":6277:6816   */\n      swap3\n      swap2\n      pop\n      pop\n      jump\t// out\n        /* \"#utility.yul\":6822:6940   */\n    tag_123:\n        /* \"#utility.yul\":6909:6933   */\n      tag_214\n        /* \"#utility.yul\":6927:6932   */\n      dup2\n        /* \"#utility.yul\":6909:6933   */\n      tag_115\n      jump\t// in\n    tag_214:\n        /* \"#utility.yul\":6904:6907   */\n      dup3\n        /* \"#utility.yul\":6897:6934   */\n      mstore\n        /* \"#utility.yul\":6822:6940   */\n      pop\n      pop\n      jump\t// out\n        /* \"#utility.yul\":6946:7168   */\n    tag_33:\n        /* \"#utility.yul\":7039:7043   */\n      0x00\n        /* \"#utility.yul\":7077:7079   */\n      0x20\n        /* \"#utility.yul\":7066:7075   */\n      dup3\n        /* \"#utility.yul\":7062:7080   */\n      add\n        /* \"#utility.yul\":7054:7080   */\n      swap1\n      pop\n        /* \"#utility.yul\":7090:7161   */\n      tag_216\n        /* \"#utility.yul\":7158:7159   */\n      0x00\n        /* \"#utility.yul\":7147:7156   */\n      dup4\n        /* \"#utility.yul\":7143:7160   */\n      add\n        /* \"#utility.yul\":7134:7140   */\n      dup5\n        /* \"#utility.yul\":7090:7161   */\n      tag_123\n      jump\t// in\n    tag_216:\n        /* \"#utility.yul\":6946:7168   */\n      swap3\n      swap2\n      pop\n      pop\n      jump\t// out\n        /* \"#utility.yul\":7174:7503   */\n    tag_40:\n        /* \"#utility.yul\":7233:7239   */\n      0x00\n        /* \"#utility.yul\":7282:7284   */\n      0x20\n        /* \"#utility.yul\":7270:7279   */\n      dup3\n        /* \"#utility.yul\":7261:7268   */\n      dup5\n        /* \"#utility.yul\":7257:7280   */\n      sub\n        /* \"#utility.yul\":7253:7285   */\n      slt\n        /* \"#utility.yul\":7250:7369   */\n      iszero\n      tag_218\n      jumpi\n        /* \"#utility.yul\":7288:7367   */\n      tag_219\n      tag_101\n      jump\t// in\n    tag_219:\n        /* \"#utility.yul\":7250:7369   */\n    tag_218:\n        /* \"#utility.yul\":7408:7409   */\n      0x00\n        /* \"#utility.yul\":7433:7486   */\n      tag_220\n        /* \"#utility.yul\":7478:7485   */\n      dup5\n        /* \"#utility.yul\":7469:7475   */\n      dup3\n        /* \"#utility.yul\":7458:7467   */\n      dup6\n        /* \"#utility.yul\":7454:7476   */\n      add\n        /* \"#utility.yul\":7433:7486   */\n      tag_117\n      jump\t// in\n    tag_220:\n        /* \"#utility.yul\":7423:7486   */\n      swap2\n      pop\n        /* \"#utility.yul\":7379:7496   */\n      pop\n        /* \"#utility.yul\":7174:7503   */\n      swap3\n      swap2\n      pop\n      pop\n      jump\t// out\n        /* \"#utility.yul\":7509:7599   */\n    tag_124:\n        /* \"#utility.yul\":7543:7550   */\n      0x00\n        /* \"#utility.yul\":7586:7591   */\n      dup2\n        /* \"#utility.yul\":7579:7592   */\n      iszero\n        /* \"#utility.yul\":7572:7593   */\n      iszero\n        /* \"#utility.yul\":7561:7593   */\n      swap1\n      pop\n        /* \"#utility.yul\":7509:7599   */\n      swap2\n      swap1\n      pop\n      jump\t// out\n        /* \"#utility.yul\":7605:7714   */\n    tag_125:\n        /* \"#utility.yul\":7686:7707   */\n      tag_223\n        /* \"#utility.yul\":7701:7706   */\n      dup2\n        /* \"#utility.yul\":7686:7707   */\n      tag_124\n      jump\t// in\n    tag_223:\n        /* \"#utility.yul\":7681:7684   */\n      dup3\n        /* \"#utility.yul\":7674:7708   */\n      mstore\n        /* \"#utility.yul\":7605:7714   */\n      pop\n      pop\n      jump\t// out\n        /* \"#utility.yul\":7720:7930   */\n    tag_43:\n        /* \"#utility.yul\":7807:7811   */\n      0x00\n        /* \"#utility.yul\":7845:7847   */\n      0x20\n        /* \"#utility.yul\":7834:7843   */\n      dup3\n        /* \"#utility.yul\":7830:7848   */\n      add\n        /* \"#utility.yul\":7822:7848   */\n      swap1\n      pop\n        /* \"#utility.yul\":7858:7923   */\n      tag_225\n        /* \"#utility.yul\":7920:7921   */\n      0x00\n        /* \"#utility.yul\":7909:7918   */\n      dup4\n        /* \"#utility.yul\":7905:7922   */\n      add\n        /* \"#utility.yul\":7896:7902   */\n      dup5\n        /* \"#utility.yul\":7858:7923   */\n      tag_125\n      jump\t// in\n    tag_225:\n        /* \"#utility.yul\":7720:7930   */\n      swap3\n      swap2\n      pop\n      pop\n      jump\t// out\n        /* \"#utility.yul\":7936:8105   */\n    tag_126:\n        /* \"#utility.yul\":8020:8031   */\n      0x00\n        /* \"#utility.yul\":8054:8060   */\n      dup3\n        /* \"#utility.yul\":8049:8052   */\n      dup3\n        /* \"#utility.yul\":8042:8061   */\n      mstore\n        /* \"#utility.yul\":8094:8098   */\n      0x20\n        /* \"#utility.yul\":8089:8092   */\n      dup3\n        /* \"#utility.yul\":8085:8099   */\n      add\n        /* \"#utility.yul\":8070:8099   */\n      swap1\n      pop\n        /* \"#utility.yul\":7936:8105   */\n      swap3\n      swap2\n      pop\n      pop\n      jump\t// out\n        /* \"#utility.yul\":8111:8277   */\n    tag_127:\n        /* \"#utility.yul\":8251:8269   */\n      0x596f75206d6179206e6f7420766f746500000000000000000000000000000000\n        /* \"#utility.yul\":8247:8248   */\n      0x00\n        /* \"#utility.yul\":8239:8245   */\n      dup3\n        /* \"#utility.yul\":8235:8249   */\n      add\n        /* \"#utility.yul\":8228:8270   */\n      mstore\n        /* \"#utility.yul\":8111:8277   */\n      pop\n      jump\t// out\n        /* \"#utility.yul\":8283:8649   */\n    tag_128:\n        /* \"#utility.yul\":8425:8428   */\n      0x00\n        /* \"#utility.yul\":8446:8513   */\n      tag_229\n        /* \"#utility.yul\":8510:8512   */\n      0x10\n        /* \"#utility.yul\":8505:8508   */\n      dup4\n        /* \"#utility.yul\":8446:8513   */\n      tag_126\n      jump\t// in\n    tag_229:\n        /* \"#utility.yul\":8439:8513   */\n      swap2\n      pop\n        /* \"#utility.yul\":8522:8615   */\n      tag_230\n        /* \"#utility.yul\":8611:8614   */\n      dup3\n        /* \"#utility.yul\":8522:8615   */\n      tag_127\n      jump\t// in\n    tag_230:\n        /* \"#utility.yul\":8640:8642   */\n      0x20\n        /* \"#utility.yul\":8635:8638   */\n      dup3\n        /* \"#utility.yul\":8631:8643   */\n      add\n        /* \"#utility.yul\":8624:8643   */\n      swap1\n      pop\n        /* \"#utility.yul\":8283:8649   */\n      swap2\n      swap1\n      pop\n      jump\t// out\n        /* \"#utility.yul\":8655:9074   */\n    tag_53:\n        /* \"#utility.yul\":8821:8825   */\n      0x00\n        /* \"#utility.yul\":8859:8861   */\n      0x20\n        /* \"#utility.yul\":8848:8857   */\n      dup3\n        /* \"#utility.yul\":8844:8862   */\n      add\n        /* \"#utility.yul\":8836:8862   */\n      swap1\n      pop\n        /* \"#utility.yul\":8908:8917   */\n      dup2\n        /* \"#utility.yul\":8902:8906   */\n      dup2\n        /* \"#utility.yul\":8898:8918   */\n      sub\n        /* \"#utility.yul\":8894:8895   */\n      0x00\n        /* \"#utility.yul\":8883:8892   */\n      dup4\n        /* \"#utility.yul\":8879:8896   */\n      add\n        /* \"#utility.yul\":8872:8919   */\n      mstore\n        /* \"#utility.yul\":8936:9067   */\n      tag_232\n        /* \"#utility.yul\":9062:9066   */\n      dup2\n        /* \"#utility.yul\":8936:9067   */\n      tag_128\n      jump\t// in\n    tag_232:\n        /* \"#utility.yul\":8928:9067   */\n      swap1\n      pop\n        /* \"#utility.yul\":8655:9074   */\n      swap2\n      swap1\n      pop\n      jump\t// out\n        /* \"#utility.yul\":9080:9260   */\n    tag_129:\n        /* \"#utility.yul\":9128:9205   */\n      0x4e487b7100000000000000000000000000000000000000000000000000000000\n        /* \"#utility.yul\":9125:9126   */\n      0x00\n        /* \"#utility.yul\":9118:9206   */\n      mstore\n        /* \"#utility.yul\":9225:9229   */\n      0x11\n        /* \"#utility.yul\":9222:9223   */\n      0x04\n        /* \"#utility.yul\":9215:9230   */\n      mstore\n        /* \"#utility.yul\":9249:9253   */\n      0x24\n        /* \"#utility.yul\":9246:9247   */\n      0x00\n        /* \"#utility.yul\":9239:9254   */\n      revert\n        /* \"#utility.yul\":9266:9499   */\n    tag_56:\n        /* \"#utility.yul\":9305:9308   */\n      0x00\n        /* \"#utility.yul\":9328:9352   */\n      tag_235\n        /* \"#utility.yul\":9346:9351   */\n      dup3\n        /* \"#utility.yul\":9328:9352   */\n      tag_103\n      jump\t// in\n    tag_235:\n        /* \"#utility.yul\":9319:9352   */\n      swap2\n      pop\n        /* \"#utility.yul\":9374:9440   */\n      0xffffffffffffffffffffffffffffffffffffffffffffffffffffffffffffffff\n        /* \"#utility.yul\":9367:9372   */\n      dup3\n        /* \"#utility.yul\":9364:9441   */\n      sub\n        /* \"#utility.yul\":9361:9464   */\n      tag_236\n      jumpi\n        /* \"#utility.yul\":9444:9462   */\n      tag_237\n      tag_129\n      jump\t// in\n    tag_237:\n        /* \"#utility.yul\":9361:9464   */\n    tag_236:\n        /* \"#utility.yul\":9491:9492   */\n      0x01\n        /* \"#utility.yul\":9484:9489   */\n      dup3\n        /* \"#utility.yul\":9480:9493   */\n      add\n        /* \"#utility.yul\":9473:9493   */\n      swap1\n      pop\n        /* \"#utility.yul\":9266:9499   */\n      swap2\n      swap1\n      pop\n      jump\t// out\n        /* \"#utility.yul\":9505:9947   */\n    tag_58:\n        /* \"#utility.yul\":9654:9658   */\n      0x00\n        /* \"#utility.yul\":9692:9694   */\n      0x60\n        /* \"#utility.yul\":9681:9690   */\n      dup3\n        /* \"#utility.yul\":9677:9695   */\n      add\n        /* \"#utility.yul\":9669:9695   */\n      swap1\n      pop\n        /* \"#utility.yul\":9705:9776   */\n      tag_239\n        /* \"#utility.yul\":9773:9774   */\n      0x00\n        /* \"#utility.yul\":9762:9771   */\n      dup4\n        /* \"#utility.yul\":9758:9775   */\n      add\n        /* \"#utility.yul\":9749:9755   */\n      dup7\n        /* \"#utility.yul\":9705:9776   */\n      tag_106\n      jump\t// in\n    tag_239:\n        /* \"#utility.yul\":9786:9858   */\n      tag_240\n        /* \"#utility.yul\":9854:9856   */\n      0x20\n        /* \"#utility.yul\":9843:9852   */\n      dup4\n        /* \"#utility.yul\":9839:9857   */\n      add\n        /* \"#utility.yul\":9830:9836   */\n      dup6\n        /* \"#utility.yul\":9786:9858   */\n      tag_106\n      jump\t// in\n    tag_240:\n        /* \"#utility.yul\":9868:9940   */\n      tag_241\n        /* \"#utility.yul\":9936:9938   */\n      0x40\n        /* \"#utility.yul\":9925:9934   */\n      dup4\n        /* \"#utility.yul\":9921:9939   */\n      add\n        /* \"#utility.yul\":9912:9918   */\n      dup5\n        /* \"#utility.yul\":9868:9940   */\n      tag_123\n      jump\t// in\n    tag_241:\n        /* \"#utility.yul\":9505:9947   */\n      swap5\n      swap4\n      pop\n      pop\n      pop\n      pop\n      jump\t// out\n        /* \"#utility.yul\":9953:10122   */\n    tag_130:\n        /* \"#utility.yul\":10093:10114   */\n      0x43616c6c6572206973206e6f74206f776e657200000000000000000000000000\n        /* \"#utility.yul\":10089:10090   */\n      0x00\n        /* \"#utility.yul\":10081:10087   */\n      dup3\n        /* \"#utility.yul\":10077:10091   */\n      add\n        /* \"#utility.yul\":10070:10115   */\n      mstore\n        /* \"#utility.yul\":9953:10122   */\n      pop\n      jump\t// out\n        /* \"#utility.yul\":10128:10494   */\n    tag_131:\n        /* \"#utility.yul\":10270:10273   */\n      0x00\n        /* \"#utility.yul\":10291:10358   */\n      tag_244\n        /* \"#utility.yul\":10355:10357   */\n      0x13\n        /* \"#utility.yul\":10350:10353   */\n      dup4\n        /* \"#utility.yul\":10291:10358   */\n      tag_126\n      jump\t// in\n    tag_244:\n        /* \"#utility.yul\":10284:10358   */\n      swap2\n      pop\n        /* \"#utility.yul\":10367:10460   */\n      tag_245\n        /* \"#utility.yul\":10456:10459   */\n      dup3\n        /* \"#utility.yul\":10367:10460   */\n      tag_130\n      jump\t// in\n    tag_245:\n        /* \"#utility.yul\":10485:10487   */\n      0x20\n        /* \"#utility.yul\":10480:10483   */\n      dup3\n        /* \"#utility.yul\":10476:10488   */\n      add\n        /* \"#utility.yul\":10469:10488   */\n      swap1\n      pop\n        /* \"#utility.yul\":10128:10494   */\n      swap2\n      swap1\n      pop\n      jump\t// out\n        /* \"#utility.yul\":10500:10919   */\n    tag_62:\n        /* \"#utility.yul\":10666:10670   */\n      0x00\n        /* \"#utility.yul\":10704:10706   */\n      0x20\n        /* \"#utility.yul\":10693:10702   */\n      dup3\n        /* \"#utility.yul\":10689:10707   */\n      add\n        /* \"#utility.yul\":10681:10707   */\n      swap1\n      pop\n        /* \"#utility.yul\":10753:10762   */\n      dup2\n        /* \"#utility.yul\":10747:10751   */\n      dup2\n        /* \"#utility.yul\":10743:10763   */\n      sub\n        /* \"#utility.yul\":10739:10740   */\n      0x00\n        /* \"#utility.yul\":10728:10737   */\n      dup4\n        /* \"#utility.yul\":10724:10741   */\n      add\n        /* \"#utility.yul\":10717:10764   */\n      mstore\n        /* \"#utility.yul\":10781:10912   */\n      tag_247\n        /* \"#utility.yul\":10907:10911   */\n      dup2\n        /* \"#utility.yul\":10781:10912   */\n      tag_131\n      jump\t// in\n    tag_247:\n        /* \"#utility.yul\":10773:10912   */\n      swap1\n      pop\n        /* \"#utility.yul\":10500:10919   */\n      swap2\n      swap1\n      pop\n      jump\t// out\n        /* \"#utility.yul\":10925:11105   */\n    tag_69:\n        /* \"#utility.yul\":10973:11050   */\n      0x4e487b7100000000000000000000000000000000000000000000000000000000\n        /* \"#utility.yul\":10970:10971   */\n      0x00\n        /* \"#utility.yul\":10963:11051   */\n      mstore\n        /* \"#utility.yul\":11070:11074   */\n      0x32\n        /* \"#utility.yul\":11067:11068   */\n      0x04\n        /* \"#utility.yul\":11060:11075   */\n      mstore\n        /* \"#utility.yul\":11094:11098   */\n      0x24\n        /* \"#utility.yul\":11091:11092   */\n      0x00\n        /* \"#utility.yul\":11084:11099   */\n      revert\n\n    auxdata: 0xa26469706673582212200c418b2a4b1028ff7aa95f13eeee299ce62d40758e9ff3a5ec6278644a65aac964736f6c63430008110033\n}\n",
				"bytecode": {
					"linkReferences": {},
					"object": "608060405234801561001057600080fd5b50336000806101000a81548173ffffffffffffffffffffffffffffffffffffffff021916908373ffffffffffffffffffffffffffffffffffffffff16021790555060008054906101000a900473ffffffffffffffffffffffffffffffffffffffff1673ffffffffffffffffffffffffffffffffffffffff16600073ffffffffffffffffffffffffffffffffffffffff167f342827c97908e5e2f71151c08502a66d44b6f758e3ac2f1de95f02eb95f0a73560405160405180910390a3610d76806100db6000396000f3fe608060405234801561001057600080fd5b50600436106100935760003560e01c80638da5cb5b116100665780638da5cb5b1461011c5780639b644a231461013a5780639bee3d101461016a578063a6f9dae11461019a578063ea35e805146101b657610093565b80630121b93f14610098578063013cf08b146100b45780631ad1c9e9146100e457806329eb7fb514610100575b600080fd5b6100b260048036038101906100ad919061078a565b6101d4565b005b6100ce60048036038101906100c9919061078a565b610332565b6040516100db91906107c6565b60405180910390f35b6100fe60048036038101906100f99190610998565b61034a565b005b61011a60048036038101906101159190610aa4565b61046d565b005b6101246104d3565b6040516101319190610afc565b60405180910390f35b610154600480360381019061014f919061078a565b6104f7565b60405161016191906107c6565b60405180910390f35b610184600480360381019061017f9190610b17565b61051b565b6040516101919190610b5f565b60405180910390f35b6101b460048036038101906101af9190610b17565b61053b565b005b6101be610686565b6040516101cb91906107c6565b60405180910390f35b600360003373ffffffffffffffffffffffffffffffffffffffff1673ffffffffffffffffffffffffffffffffffffffff16815260200190815260200160002060009054906101000a900460ff16610260576040517f08c379a000000000000000000000000000000000000000000000000000000000815260040161025790610bd7565b60405180910390fd5b60016000828152602001908152602001600020600081548092919061028490610c26565b91905055506000600360003373ffffffffffffffffffffffffffffffffffffffff1673ffffffffffffffffffffffffffffffffffffffff16815260200190815260200160002060006101000a81548160ff0219169083151502179055507f4cc53fbb0c3386a0a08451e0710dd6dfaf4631121566865cfbfc744bdb1f25128160016000848152602001908152602001600020543360405161032793929190610c6e565b60405180910390a150565b60016020528060005260406000206000915090505481565b60008054906101000a900473ffffffffffffffffffffffffffffffffffffffff1673ffffffffffffffffffffffffffffffffffffffff163373ffffffffffffffffffffffffffffffffffffffff16146103d8576040517f08c379a00000000000000000000000000000000000000000000000000000000081526004016103cf90610cf1565b60405180910390fd5b60005b8151811015610469576001600360008484815181106103fd576103fc610d11565b5b602002602001015173ffffffffffffffffffffffffffffffffffffffff1673ffffffffffffffffffffffffffffffffffffffff16815260200190815260200160002060006101000a81548160ff021916908315150217905550808061046190610c26565b9150506103db565b5050565b60005b81518110156104cf57600282828151811061048e5761048d610d11565b5b6020026020010151908060018154018082558091505060019003906000526020600020016000909190919091505580806104c790610c26565b915050610470565b5050565b60008054906101000a900473ffffffffffffffffffffffffffffffffffffffff1681565b6002818154811061050757600080fd5b906000526020600020016000915090505481565b60036020528060005260406000206000915054906101000a900460ff1681565b60008054906101000a900473ffffffffffffffffffffffffffffffffffffffff1673ffffffffffffffffffffffffffffffffffffffff163373ffffffffffffffffffffffffffffffffffffffff16146105c9576040517f08c379a00000000000000000000000000000000000000000000000000000000081526004016105c090610cf1565b60405180910390fd5b8073ffffffffffffffffffffffffffffffffffffffff1660008054906101000a900473ffffffffffffffffffffffffffffffffffffffff1673ffffffffffffffffffffffffffffffffffffffff167f342827c97908e5e2f71151c08502a66d44b6f758e3ac2f1de95f02eb95f0a73560405160405180910390a3806000806101000a81548173ffffffffffffffffffffffffffffffffffffffff021916908373ffffffffffffffffffffffffffffffffffffffff16021790555050565b600080600260008154811061069e5761069d610d11565b5b90600052602060002001549050600080600090505b60028054905081101561073757600060016000600284815481106106da576106d9610d11565b5b9060005260206000200154815260200190815260200160002054905082811115610723578092506002828154811061071557610714610d11565b5b906000526020600020015493505b50808061072f90610c26565b9150506106b3565b50819250505090565b6000604051905090565b600080fd5b600080fd5b6000819050919050565b61076781610754565b811461077257600080fd5b50565b6000813590506107848161075e565b92915050565b6000602082840312156107a05761079f61074a565b5b60006107ae84828501610775565b91505092915050565b6107c081610754565b82525050565b60006020820190506107db60008301846107b7565b92915050565b600080fd5b6000601f19601f8301169050919050565b7f4e487b7100000000000000000000000000000000000000000000000000000000600052604160045260246000fd5b61082f826107e6565b810181811067ffffffffffffffff8211171561084e5761084d6107f7565b5b80604052505050565b6000610861610740565b905061086d8282610826565b919050565b600067ffffffffffffffff82111561088d5761088c6107f7565b5b602082029050602081019050919050565b600080fd5b600073ffffffffffffffffffffffffffffffffffffffff82169050919050565b60006108ce826108a3565b9050919050565b6108de816108c3565b81146108e957600080fd5b50565b6000813590506108fb816108d5565b92915050565b600061091461090f84610872565b610857565b905080838252602082019050602084028301858111156109375761093661089e565b5b835b81811015610960578061094c88826108ec565b845260208401935050602081019050610939565b5050509392505050565b600082601f83011261097f5761097e6107e1565b5b813561098f848260208601610901565b91505092915050565b6000602082840312156109ae576109ad61074a565b5b600082013567ffffffffffffffff8111156109cc576109cb61074f565b5b6109d88482850161096a565b91505092915050565b600067ffffffffffffffff8211156109fc576109fb6107f7565b5b602082029050602081019050919050565b6000610a20610a1b846109e1565b610857565b90508083825260208201905060208402830185811115610a4357610a4261089e565b5b835b81811015610a6c5780610a588882610775565b845260208401935050602081019050610a45565b5050509392505050565b600082601f830112610a8b57610a8a6107e1565b5b8135610a9b848260208601610a0d565b91505092915050565b600060208284031215610aba57610ab961074a565b5b600082013567ffffffffffffffff811115610ad857610ad761074f565b5b610ae484828501610a76565b91505092915050565b610af6816108c3565b82525050565b6000602082019050610b116000830184610aed565b92915050565b600060208284031215610b2d57610b2c61074a565b5b6000610b3b848285016108ec565b91505092915050565b60008115159050919050565b610b5981610b44565b82525050565b6000602082019050610b746000830184610b50565b92915050565b600082825260208201905092915050565b7f596f75206d6179206e6f7420766f746500000000000000000000000000000000600082015250565b6000610bc1601083610b7a565b9150610bcc82610b8b565b602082019050919050565b60006020820190508181036000830152610bf081610bb4565b9050919050565b7f4e487b7100000000000000000000000000000000000000000000000000000000600052601160045260246000fd5b6000610c3182610754565b91507fffffffffffffffffffffffffffffffffffffffffffffffffffffffffffffffff8203610c6357610c62610bf7565b5b600182019050919050565b6000606082019050610c8360008301866107b7565b610c9060208301856107b7565b610c9d6040830184610aed565b949350505050565b7f43616c6c6572206973206e6f74206f776e657200000000000000000000000000600082015250565b6000610cdb601383610b7a565b9150610ce682610ca5565b602082019050919050565b60006020820190508181036000830152610d0a81610cce565b9050919050565b7f4e487b7100000000000000000000000000000000000000000000000000000000600052603260045260246000fdfea26469706673582212200c418b2a4b1028ff7aa95f13eeee299ce62d40758e9ff3a5ec6278644a65aac964736f6c63430008110033",
					"opcodes": "PUSH1 0x80 PUSH1 0x40 MSTORE CALLVALUE DUP1 ISZERO PUSH2 0x10 JUMPI PUSH1 0x0 DUP1 REVERT JUMPDEST POP CALLER PUSH1 0x0 DUP1 PUSH2 0x100 EXP DUP2 SLOAD DUP2 PUSH20 0xFFFFFFFFFFFFFFFFFFFFFFFFFFFFFFFFFFFFFFFF MUL NOT AND SWAP1 DUP4 PUSH20 0xFFFFFFFFFFFFFFFFFFFFFFFFFFFFFFFFFFFFFFFF AND MUL OR SWAP1 SSTORE POP PUSH1 0x0 DUP1 SLOAD SWAP1 PUSH2 0x100 EXP SWAP1 DIV PUSH20 0xFFFFFFFFFFFFFFFFFFFFFFFFFFFFFFFFFFFFFFFF AND PUSH20 0xFFFFFFFFFFFFFFFFFFFFFFFFFFFFFFFFFFFFFFFF AND PUSH1 0x0 PUSH20 0xFFFFFFFFFFFFFFFFFFFFFFFFFFFFFFFFFFFFFFFF AND PUSH32 0x342827C97908E5E2F71151C08502A66D44B6F758E3AC2F1DE95F02EB95F0A735 PUSH1 0x40 MLOAD PUSH1 0x40 MLOAD DUP1 SWAP2 SUB SWAP1 LOG3 PUSH2 0xD76 DUP1 PUSH2 0xDB PUSH1 0x0 CODECOPY PUSH1 0x0 RETURN INVALID PUSH1 0x80 PUSH1 0x40 MSTORE CALLVALUE DUP1 ISZERO PUSH2 0x10 JUMPI PUSH1 0x0 DUP1 REVERT JUMPDEST POP PUSH1 0x4 CALLDATASIZE LT PUSH2 0x93 JUMPI PUSH1 0x0 CALLDATALOAD PUSH1 0xE0 SHR DUP1 PUSH4 0x8DA5CB5B GT PUSH2 0x66 JUMPI DUP1 PUSH4 0x8DA5CB5B EQ PUSH2 0x11C JUMPI DUP1 PUSH4 0x9B644A23 EQ PUSH2 0x13A JUMPI DUP1 PUSH4 0x9BEE3D10 EQ PUSH2 0x16A JUMPI DUP1 PUSH4 0xA6F9DAE1 EQ PUSH2 0x19A JUMPI DUP1 PUSH4 0xEA35E805 EQ PUSH2 0x1B6 JUMPI PUSH2 0x93 JUMP JUMPDEST DUP1 PUSH4 0x121B93F EQ PUSH2 0x98 JUMPI DUP1 PUSH4 0x13CF08B EQ PUSH2 0xB4 JUMPI DUP1 PUSH4 0x1AD1C9E9 EQ PUSH2 0xE4 JUMPI DUP1 PUSH4 0x29EB7FB5 EQ PUSH2 0x100 JUMPI JUMPDEST PUSH1 0x0 DUP1 REVERT JUMPDEST PUSH2 0xB2 PUSH1 0x4 DUP1 CALLDATASIZE SUB DUP2 ADD SWAP1 PUSH2 0xAD SWAP2 SWAP1 PUSH2 0x78A JUMP JUMPDEST PUSH2 0x1D4 JUMP JUMPDEST STOP JUMPDEST PUSH2 0xCE PUSH1 0x4 DUP1 CALLDATASIZE SUB DUP2 ADD SWAP1 PUSH2 0xC9 SWAP2 SWAP1 PUSH2 0x78A JUMP JUMPDEST PUSH2 0x332 JUMP JUMPDEST PUSH1 0x40 MLOAD PUSH2 0xDB SWAP2 SWAP1 PUSH2 0x7C6 JUMP JUMPDEST PUSH1 0x40 MLOAD DUP1 SWAP2 SUB SWAP1 RETURN JUMPDEST PUSH2 0xFE PUSH1 0x4 DUP1 CALLDATASIZE SUB DUP2 ADD SWAP1 PUSH2 0xF9 SWAP2 SWAP1 PUSH2 0x998 JUMP JUMPDEST PUSH2 0x34A JUMP JUMPDEST STOP JUMPDEST PUSH2 0x11A PUSH1 0x4 DUP1 CALLDATASIZE SUB DUP2 ADD SWAP1 PUSH2 0x115 SWAP2 SWAP1 PUSH2 0xAA4 JUMP JUMPDEST PUSH2 0x46D JUMP JUMPDEST STOP JUMPDEST PUSH2 0x124 PUSH2 0x4D3 JUMP JUMPDEST PUSH1 0x40 MLOAD PUSH2 0x131 SWAP2 SWAP1 PUSH2 0xAFC JUMP JUMPDEST PUSH1 0x40 MLOAD DUP1 SWAP2 SUB SWAP1 RETURN JUMPDEST PUSH2 0x154 PUSH1 0x4 DUP1 CALLDATASIZE SUB DUP2 ADD SWAP1 PUSH2 0x14F SWAP2 SWAP1 PUSH2 0x78A JUMP JUMPDEST PUSH2 0x4F7 JUMP JUMPDEST PUSH1 0x40 MLOAD PUSH2 0x161 SWAP2 SWAP1 PUSH2 0x7C6 JUMP JUMPDEST PUSH1 0x40 MLOAD DUP1 SWAP2 SUB SWAP1 RETURN JUMPDEST PUSH2 0x184 PUSH1 0x4 DUP1 CALLDATASIZE SUB DUP2 ADD SWAP1 PUSH2 0x17F SWAP2 SWAP1 PUSH2 0xB17 JUMP JUMPDEST PUSH2 0x51B JUMP JUMPDEST PUSH1 0x40 MLOAD PUSH2 0x191 SWAP2 SWAP1 PUSH2 0xB5F JUMP JUMPDEST PUSH1 0x40 MLOAD DUP1 SWAP2 SUB SWAP1 RETURN JUMPDEST PUSH2 0x1B4 PUSH1 0x4 DUP1 CALLDATASIZE SUB DUP2 ADD SWAP1 PUSH2 0x1AF SWAP2 SWAP1 PUSH2 0xB17 JUMP JUMPDEST PUSH2 0x53B JUMP JUMPDEST STOP JUMPDEST PUSH2 0x1BE PUSH2 0x686 JUMP JUMPDEST PUSH1 0x40 MLOAD PUSH2 0x1CB SWAP2 SWAP1 PUSH2 0x7C6 JUMP JUMPDEST PUSH1 0x40 MLOAD DUP1 SWAP2 SUB SWAP1 RETURN JUMPDEST PUSH1 0x3 PUSH1 0x0 CALLER PUSH20 0xFFFFFFFFFFFFFFFFFFFFFFFFFFFFFFFFFFFFFFFF AND PUSH20 0xFFFFFFFFFFFFFFFFFFFFFFFFFFFFFFFFFFFFFFFF AND DUP2 MSTORE PUSH1 0x20 ADD SWAP1 DUP2 MSTORE PUSH1 0x20 ADD PUSH1 0x0 KECCAK256 PUSH1 0x0 SWAP1 SLOAD SWAP1 PUSH2 0x100 EXP SWAP1 DIV PUSH1 0xFF AND PUSH2 0x260 JUMPI PUSH1 0x40 MLOAD PUSH32 0x8C379A000000000000000000000000000000000000000000000000000000000 DUP2 MSTORE PUSH1 0x4 ADD PUSH2 0x257 SWAP1 PUSH2 0xBD7 JUMP JUMPDEST PUSH1 0x40 MLOAD DUP1 SWAP2 SUB SWAP1 REVERT JUMPDEST PUSH1 0x1 PUSH1 0x0 DUP3 DUP2 MSTORE PUSH1 0x20 ADD SWAP1 DUP2 MSTORE PUSH1 0x20 ADD PUSH1 0x0 KECCAK256 PUSH1 0x0 DUP2 SLOAD DUP1 SWAP3 SWAP2 SWAP1 PUSH2 0x284 SWAP1 PUSH2 0xC26 JUMP JUMPDEST SWAP2 SWAP1 POP SSTORE POP PUSH1 0x0 PUSH1 0x3 PUSH1 0x0 CALLER PUSH20 0xFFFFFFFFFFFFFFFFFFFFFFFFFFFFFFFFFFFFFFFF AND PUSH20 0xFFFFFFFFFFFFFFFFFFFFFFFFFFFFFFFFFFFFFFFF AND DUP2 MSTORE PUSH1 0x20 ADD SWAP1 DUP2 MSTORE PUSH1 0x20 ADD PUSH1 0x0 KECCAK256 PUSH1 0x0 PUSH2 0x100 EXP DUP2 SLOAD DUP2 PUSH1 0xFF MUL NOT AND SWAP1 DUP4 ISZERO ISZERO MUL OR SWAP1 SSTORE POP PUSH32 0x4CC53FBB0C3386A0A08451E0710DD6DFAF4631121566865CFBFC744BDB1F2512 DUP2 PUSH1 0x1 PUSH1 0x0 DUP5 DUP2 MSTORE PUSH1 0x20 ADD SWAP1 DUP2 MSTORE PUSH1 0x20 ADD PUSH1 0x0 KECCAK256 SLOAD CALLER PUSH1 0x40 MLOAD PUSH2 0x327 SWAP4 SWAP3 SWAP2 SWAP1 PUSH2 0xC6E JUMP JUMPDEST PUSH1 0x40 MLOAD DUP1 SWAP2 SUB SWAP1 LOG1 POP JUMP JUMPDEST PUSH1 0x1 PUSH1 0x20 MSTORE DUP1 PUSH1 0x0 MSTORE PUSH1 0x40 PUSH1 0x0 KECCAK256 PUSH1 0x0 SWAP2 POP SWAP1 POP SLOAD DUP2 JUMP JUMPDEST PUSH1 0x0 DUP1 SLOAD SWAP1 PUSH2 0x100 EXP SWAP1 DIV PUSH20 0xFFFFFFFFFFFFFFFFFFFFFFFFFFFFFFFFFFFFFFFF AND PUSH20 0xFFFFFFFFFFFFFFFFFFFFFFFFFFFFFFFFFFFFFFFF AND CALLER PUSH20 0xFFFFFFFFFFFFFFFFFFFFFFFFFFFFFFFFFFFFFFFF AND EQ PUSH2 0x3D8 JUMPI PUSH1 0x40 MLOAD PUSH32 0x8C379A000000000000000000000000000000000000000000000000000000000 DUP2 MSTORE PUSH1 0x4 ADD PUSH2 0x3CF SWAP1 PUSH2 0xCF1 JUMP JUMPDEST PUSH1 0x40 MLOAD DUP1 SWAP2 SUB SWAP1 REVERT JUMPDEST PUSH1 0x0 JUMPDEST DUP2 MLOAD DUP2 LT ISZERO PUSH2 0x469 JUMPI PUSH1 0x1 PUSH1 0x3 PUSH1 0x0 DUP5 DUP5 DUP2 MLOAD DUP2 LT PUSH2 0x3FD JUMPI PUSH2 0x3FC PUSH2 0xD11 JUMP JUMPDEST JUMPDEST PUSH1 0x20 MUL PUSH1 0x20 ADD ADD MLOAD PUSH20 0xFFFFFFFFFFFFFFFFFFFFFFFFFFFFFFFFFFFFFFFF AND PUSH20 0xFFFFFFFFFFFFFFFFFFFFFFFFFFFFFFFFFFFFFFFF AND DUP2 MSTORE PUSH1 0x20 ADD SWAP1 DUP2 MSTORE PUSH1 0x20 ADD PUSH1 0x0 KECCAK256 PUSH1 0x0 PUSH2 0x100 EXP DUP2 SLOAD DUP2 PUSH1 0xFF MUL NOT AND SWAP1 DUP4 ISZERO ISZERO MUL OR SWAP1 SSTORE POP DUP1 DUP1 PUSH2 0x461 SWAP1 PUSH2 0xC26 JUMP JUMPDEST SWAP2 POP POP PUSH2 0x3DB JUMP JUMPDEST POP POP JUMP JUMPDEST PUSH1 0x0 JUMPDEST DUP2 MLOAD DUP2 LT ISZERO PUSH2 0x4CF JUMPI PUSH1 0x2 DUP3 DUP3 DUP2 MLOAD DUP2 LT PUSH2 0x48E JUMPI PUSH2 0x48D PUSH2 0xD11 JUMP JUMPDEST JUMPDEST PUSH1 0x20 MUL PUSH1 0x20 ADD ADD MLOAD SWAP1 DUP1 PUSH1 0x1 DUP2 SLOAD ADD DUP1 DUP3 SSTORE DUP1 SWAP2 POP POP PUSH1 0x1 SWAP1 SUB SWAP1 PUSH1 0x0 MSTORE PUSH1 0x20 PUSH1 0x0 KECCAK256 ADD PUSH1 0x0 SWAP1 SWAP2 SWAP1 SWAP2 SWAP1 SWAP2 POP SSTORE DUP1 DUP1 PUSH2 0x4C7 SWAP1 PUSH2 0xC26 JUMP JUMPDEST SWAP2 POP POP PUSH2 0x470 JUMP JUMPDEST POP POP JUMP JUMPDEST PUSH1 0x0 DUP1 SLOAD SWAP1 PUSH2 0x100 EXP SWAP1 DIV PUSH20 0xFFFFFFFFFFFFFFFFFFFFFFFFFFFFFFFFFFFFFFFF AND DUP2 JUMP JUMPDEST PUSH1 0x2 DUP2 DUP2 SLOAD DUP2 LT PUSH2 0x507 JUMPI PUSH1 0x0 DUP1 REVERT JUMPDEST SWAP1 PUSH1 0x0 MSTORE PUSH1 0x20 PUSH1 0x0 KECCAK256 ADD PUSH1 0x0 SWAP2 POP SWAP1 POP SLOAD DUP2 JUMP JUMPDEST PUSH1 0x3 PUSH1 0x20 MSTORE DUP1 PUSH1 0x0 MSTORE PUSH1 0x40 PUSH1 0x0 KECCAK256 PUSH1 0x0 SWAP2 POP SLOAD SWAP1 PUSH2 0x100 EXP SWAP1 DIV PUSH1 0xFF AND DUP2 JUMP JUMPDEST PUSH1 0x0 DUP1 SLOAD SWAP1 PUSH2 0x100 EXP SWAP1 DIV PUSH20 0xFFFFFFFFFFFFFFFFFFFFFFFFFFFFFFFFFFFFFFFF AND PUSH20 0xFFFFFFFFFFFFFFFFFFFFFFFFFFFFFFFFFFFFFFFF AND CALLER PUSH20 0xFFFFFFFFFFFFFFFFFFFFFFFFFFFFFFFFFFFFFFFF AND EQ PUSH2 0x5C9 JUMPI PUSH1 0x40 MLOAD PUSH32 0x8C379A000000000000000000000000000000000000000000000000000000000 DUP2 MSTORE PUSH1 0x4 ADD PUSH2 0x5C0 SWAP1 PUSH2 0xCF1 JUMP JUMPDEST PUSH1 0x40 MLOAD DUP1 SWAP2 SUB SWAP1 REVERT JUMPDEST DUP1 PUSH20 0xFFFFFFFFFFFFFFFFFFFFFFFFFFFFFFFFFFFFFFFF AND PUSH1 0x0 DUP1 SLOAD SWAP1 PUSH2 0x100 EXP SWAP1 DIV PUSH20 0xFFFFFFFFFFFFFFFFFFFFFFFFFFFFFFFFFFFFFFFF AND PUSH20 0xFFFFFFFFFFFFFFFFFFFFFFFFFFFFFFFFFFFFFFFF AND PUSH32 0x342827C97908E5E2F71151C08502A66D44B6F758E3AC2F1DE95F02EB95F0A735 PUSH1 0x40 MLOAD PUSH1 0x40 MLOAD DUP1 SWAP2 SUB SWAP1 LOG3 DUP1 PUSH1 0x0 DUP1 PUSH2 0x100 EXP DUP2 SLOAD DUP2 PUSH20 0xFFFFFFFFFFFFFFFFFFFFFFFFFFFFFFFFFFFFFFFF MUL NOT AND SWAP1 DUP4 PUSH20 0xFFFFFFFFFFFFFFFFFFFFFFFFFFFFFFFFFFFFFFFF AND MUL OR SWAP1 SSTORE POP POP JUMP JUMPDEST PUSH1 0x0 DUP1 PUSH1 0x2 PUSH1 0x0 DUP2 SLOAD DUP2 LT PUSH2 0x69E JUMPI PUSH2 0x69D PUSH2 0xD11 JUMP JUMPDEST JUMPDEST SWAP1 PUSH1 0x0 MSTORE PUSH1 0x20 PUSH1 0x0 KECCAK256 ADD SLOAD SWAP1 POP PUSH1 0x0 DUP1 PUSH1 0x0 SWAP1 POP JUMPDEST PUSH1 0x2 DUP1 SLOAD SWAP1 POP DUP2 LT ISZERO PUSH2 0x737 JUMPI PUSH1 0x0 PUSH1 0x1 PUSH1 0x0 PUSH1 0x2 DUP5 DUP2 SLOAD DUP2 LT PUSH2 0x6DA JUMPI PUSH2 0x6D9 PUSH2 0xD11 JUMP JUMPDEST JUMPDEST SWAP1 PUSH1 0x0 MSTORE PUSH1 0x20 PUSH1 0x0 KECCAK256 ADD SLOAD DUP2 MSTORE PUSH1 0x20 ADD SWAP1 DUP2 MSTORE PUSH1 0x20 ADD PUSH1 0x0 KECCAK256 SLOAD SWAP1 POP DUP3 DUP2 GT ISZERO PUSH2 0x723 JUMPI DUP1 SWAP3 POP PUSH1 0x2 DUP3 DUP2 SLOAD DUP2 LT PUSH2 0x715 JUMPI PUSH2 0x714 PUSH2 0xD11 JUMP JUMPDEST JUMPDEST SWAP1 PUSH1 0x0 MSTORE PUSH1 0x20 PUSH1 0x0 KECCAK256 ADD SLOAD SWAP4 POP JUMPDEST POP DUP1 DUP1 PUSH2 0x72F SWAP1 PUSH2 0xC26 JUMP JUMPDEST SWAP2 POP POP PUSH2 0x6B3 JUMP JUMPDEST POP DUP2 SWAP3 POP POP POP SWAP1 JUMP JUMPDEST PUSH1 0x0 PUSH1 0x40 MLOAD SWAP1 POP SWAP1 JUMP JUMPDEST PUSH1 0x0 DUP1 REVERT JUMPDEST PUSH1 0x0 DUP1 REVERT JUMPDEST PUSH1 0x0 DUP2 SWAP1 POP SWAP2 SWAP1 POP JUMP JUMPDEST PUSH2 0x767 DUP2 PUSH2 0x754 JUMP JUMPDEST DUP2 EQ PUSH2 0x772 JUMPI PUSH1 0x0 DUP1 REVERT JUMPDEST POP JUMP JUMPDEST PUSH1 0x0 DUP2 CALLDATALOAD SWAP1 POP PUSH2 0x784 DUP2 PUSH2 0x75E JUMP JUMPDEST SWAP3 SWAP2 POP POP JUMP JUMPDEST PUSH1 0x0 PUSH1 0x20 DUP3 DUP5 SUB SLT ISZERO PUSH2 0x7A0 JUMPI PUSH2 0x79F PUSH2 0x74A JUMP JUMPDEST JUMPDEST PUSH1 0x0 PUSH2 0x7AE DUP5 DUP3 DUP6 ADD PUSH2 0x775 JUMP JUMPDEST SWAP2 POP POP SWAP3 SWAP2 POP POP JUMP JUMPDEST PUSH2 0x7C0 DUP2 PUSH2 0x754 JUMP JUMPDEST DUP3 MSTORE POP POP JUMP JUMPDEST PUSH1 0x0 PUSH1 0x20 DUP3 ADD SWAP1 POP PUSH2 0x7DB PUSH1 0x0 DUP4 ADD DUP5 PUSH2 0x7B7 JUMP JUMPDEST SWAP3 SWAP2 POP POP JUMP JUMPDEST PUSH1 0x0 DUP1 REVERT JUMPDEST PUSH1 0x0 PUSH1 0x1F NOT PUSH1 0x1F DUP4 ADD AND SWAP1 POP SWAP2 SWAP1 POP JUMP JUMPDEST PUSH32 0x4E487B7100000000000000000000000000000000000000000000000000000000 PUSH1 0x0 MSTORE PUSH1 0x41 PUSH1 0x4 MSTORE PUSH1 0x24 PUSH1 0x0 REVERT JUMPDEST PUSH2 0x82F DUP3 PUSH2 0x7E6 JUMP JUMPDEST DUP2 ADD DUP2 DUP2 LT PUSH8 0xFFFFFFFFFFFFFFFF DUP3 GT OR ISZERO PUSH2 0x84E JUMPI PUSH2 0x84D PUSH2 0x7F7 JUMP JUMPDEST JUMPDEST DUP1 PUSH1 0x40 MSTORE POP POP POP JUMP JUMPDEST PUSH1 0x0 PUSH2 0x861 PUSH2 0x740 JUMP JUMPDEST SWAP1 POP PUSH2 0x86D DUP3 DUP3 PUSH2 0x826 JUMP JUMPDEST SWAP2 SWAP1 POP JUMP JUMPDEST PUSH1 0x0 PUSH8 0xFFFFFFFFFFFFFFFF DUP3 GT ISZERO PUSH2 0x88D JUMPI PUSH2 0x88C PUSH2 0x7F7 JUMP JUMPDEST JUMPDEST PUSH1 0x20 DUP3 MUL SWAP1 POP PUSH1 0x20 DUP2 ADD SWAP1 POP SWAP2 SWAP1 POP JUMP JUMPDEST PUSH1 0x0 DUP1 REVERT JUMPDEST PUSH1 0x0 PUSH20 0xFFFFFFFFFFFFFFFFFFFFFFFFFFFFFFFFFFFFFFFF DUP3 AND SWAP1 POP SWAP2 SWAP1 POP JUMP JUMPDEST PUSH1 0x0 PUSH2 0x8CE DUP3 PUSH2 0x8A3 JUMP JUMPDEST SWAP1 POP SWAP2 SWAP1 POP JUMP JUMPDEST PUSH2 0x8DE DUP2 PUSH2 0x8C3 JUMP JUMPDEST DUP2 EQ PUSH2 0x8E9 JUMPI PUSH1 0x0 DUP1 REVERT JUMPDEST POP JUMP JUMPDEST PUSH1 0x0 DUP2 CALLDATALOAD SWAP1 POP PUSH2 0x8FB DUP2 PUSH2 0x8D5 JUMP JUMPDEST SWAP3 SWAP2 POP POP JUMP JUMPDEST PUSH1 0x0 PUSH2 0x914 PUSH2 0x90F DUP5 PUSH2 0x872 JUMP JUMPDEST PUSH2 0x857 JUMP JUMPDEST SWAP1 POP DUP1 DUP4 DUP3 MSTORE PUSH1 0x20 DUP3 ADD SWAP1 POP PUSH1 0x20 DUP5 MUL DUP4 ADD DUP6 DUP2 GT ISZERO PUSH2 0x937 JUMPI PUSH2 0x936 PUSH2 0x89E JUMP JUMPDEST JUMPDEST DUP4 JUMPDEST DUP2 DUP2 LT ISZERO PUSH2 0x960 JUMPI DUP1 PUSH2 0x94C DUP9 DUP3 PUSH2 0x8EC JUMP JUMPDEST DUP5 MSTORE PUSH1 0x20 DUP5 ADD SWAP4 POP POP PUSH1 0x20 DUP2 ADD SWAP1 POP PUSH2 0x939 JUMP JUMPDEST POP POP POP SWAP4 SWAP3 POP POP POP JUMP JUMPDEST PUSH1 0x0 DUP3 PUSH1 0x1F DUP4 ADD SLT PUSH2 0x97F JUMPI PUSH2 0x97E PUSH2 0x7E1 JUMP JUMPDEST JUMPDEST DUP2 CALLDATALOAD PUSH2 0x98F DUP5 DUP3 PUSH1 0x20 DUP7 ADD PUSH2 0x901 JUMP JUMPDEST SWAP2 POP POP SWAP3 SWAP2 POP POP JUMP JUMPDEST PUSH1 0x0 PUSH1 0x20 DUP3 DUP5 SUB SLT ISZERO PUSH2 0x9AE JUMPI PUSH2 0x9AD PUSH2 0x74A JUMP JUMPDEST JUMPDEST PUSH1 0x0 DUP3 ADD CALLDATALOAD PUSH8 0xFFFFFFFFFFFFFFFF DUP2 GT ISZERO PUSH2 0x9CC JUMPI PUSH2 0x9CB PUSH2 0x74F JUMP JUMPDEST JUMPDEST PUSH2 0x9D8 DUP5 DUP3 DUP6 ADD PUSH2 0x96A JUMP JUMPDEST SWAP2 POP POP SWAP3 SWAP2 POP POP JUMP JUMPDEST PUSH1 0x0 PUSH8 0xFFFFFFFFFFFFFFFF DUP3 GT ISZERO PUSH2 0x9FC JUMPI PUSH2 0x9FB PUSH2 0x7F7 JUMP JUMPDEST JUMPDEST PUSH1 0x20 DUP3 MUL SWAP1 POP PUSH1 0x20 DUP2 ADD SWAP1 POP SWAP2 SWAP1 POP JUMP JUMPDEST PUSH1 0x0 PUSH2 0xA20 PUSH2 0xA1B DUP5 PUSH2 0x9E1 JUMP JUMPDEST PUSH2 0x857 JUMP JUMPDEST SWAP1 POP DUP1 DUP4 DUP3 MSTORE PUSH1 0x20 DUP3 ADD SWAP1 POP PUSH1 0x20 DUP5 MUL DUP4 ADD DUP6 DUP2 GT ISZERO PUSH2 0xA43 JUMPI PUSH2 0xA42 PUSH2 0x89E JUMP JUMPDEST JUMPDEST DUP4 JUMPDEST DUP2 DUP2 LT ISZERO PUSH2 0xA6C JUMPI DUP1 PUSH2 0xA58 DUP9 DUP3 PUSH2 0x775 JUMP JUMPDEST DUP5 MSTORE PUSH1 0x20 DUP5 ADD SWAP4 POP POP PUSH1 0x20 DUP2 ADD SWAP1 POP PUSH2 0xA45 JUMP JUMPDEST POP POP POP SWAP4 SWAP3 POP POP POP JUMP JUMPDEST PUSH1 0x0 DUP3 PUSH1 0x1F DUP4 ADD SLT PUSH2 0xA8B JUMPI PUSH2 0xA8A PUSH2 0x7E1 JUMP JUMPDEST JUMPDEST DUP2 CALLDATALOAD PUSH2 0xA9B DUP5 DUP3 PUSH1 0x20 DUP7 ADD PUSH2 0xA0D JUMP JUMPDEST SWAP2 POP POP SWAP3 SWAP2 POP POP JUMP JUMPDEST PUSH1 0x0 PUSH1 0x20 DUP3 DUP5 SUB SLT ISZERO PUSH2 0xABA JUMPI PUSH2 0xAB9 PUSH2 0x74A JUMP JUMPDEST JUMPDEST PUSH1 0x0 DUP3 ADD CALLDATALOAD PUSH8 0xFFFFFFFFFFFFFFFF DUP2 GT ISZERO PUSH2 0xAD8 JUMPI PUSH2 0xAD7 PUSH2 0x74F JUMP JUMPDEST JUMPDEST PUSH2 0xAE4 DUP5 DUP3 DUP6 ADD PUSH2 0xA76 JUMP JUMPDEST SWAP2 POP POP SWAP3 SWAP2 POP POP JUMP JUMPDEST PUSH2 0xAF6 DUP2 PUSH2 0x8C3 JUMP JUMPDEST DUP3 MSTORE POP POP JUMP JUMPDEST PUSH1 0x0 PUSH1 0x20 DUP3 ADD SWAP1 POP PUSH2 0xB11 PUSH1 0x0 DUP4 ADD DUP5 PUSH2 0xAED JUMP JUMPDEST SWAP3 SWAP2 POP POP JUMP JUMPDEST PUSH1 0x0 PUSH1 0x20 DUP3 DUP5 SUB SLT ISZERO PUSH2 0xB2D JUMPI PUSH2 0xB2C PUSH2 0x74A JUMP JUMPDEST JUMPDEST PUSH1 0x0 PUSH2 0xB3B DUP5 DUP3 DUP6 ADD PUSH2 0x8EC JUMP JUMPDEST SWAP2 POP POP SWAP3 SWAP2 POP POP JUMP JUMPDEST PUSH1 0x0 DUP2 ISZERO ISZERO SWAP1 POP SWAP2 SWAP1 POP JUMP JUMPDEST PUSH2 0xB59 DUP2 PUSH2 0xB44 JUMP JUMPDEST DUP3 MSTORE POP POP JUMP JUMPDEST PUSH1 0x0 PUSH1 0x20 DUP3 ADD SWAP1 POP PUSH2 0xB74 PUSH1 0x0 DUP4 ADD DUP5 PUSH2 0xB50 JUMP JUMPDEST SWAP3 SWAP2 POP POP JUMP JUMPDEST PUSH1 0x0 DUP3 DUP3 MSTORE PUSH1 0x20 DUP3 ADD SWAP1 POP SWAP3 SWAP2 POP POP JUMP JUMPDEST PUSH32 0x596F75206D6179206E6F7420766F746500000000000000000000000000000000 PUSH1 0x0 DUP3 ADD MSTORE POP JUMP JUMPDEST PUSH1 0x0 PUSH2 0xBC1 PUSH1 0x10 DUP4 PUSH2 0xB7A JUMP JUMPDEST SWAP2 POP PUSH2 0xBCC DUP3 PUSH2 0xB8B JUMP JUMPDEST PUSH1 0x20 DUP3 ADD SWAP1 POP SWAP2 SWAP1 POP JUMP JUMPDEST PUSH1 0x0 PUSH1 0x20 DUP3 ADD SWAP1 POP DUP2 DUP2 SUB PUSH1 0x0 DUP4 ADD MSTORE PUSH2 0xBF0 DUP2 PUSH2 0xBB4 JUMP JUMPDEST SWAP1 POP SWAP2 SWAP1 POP JUMP JUMPDEST PUSH32 0x4E487B7100000000000000000000000000000000000000000000000000000000 PUSH1 0x0 MSTORE PUSH1 0x11 PUSH1 0x4 MSTORE PUSH1 0x24 PUSH1 0x0 REVERT JUMPDEST PUSH1 0x0 PUSH2 0xC31 DUP3 PUSH2 0x754 JUMP JUMPDEST SWAP2 POP PUSH32 0xFFFFFFFFFFFFFFFFFFFFFFFFFFFFFFFFFFFFFFFFFFFFFFFFFFFFFFFFFFFFFFFF DUP3 SUB PUSH2 0xC63 JUMPI PUSH2 0xC62 PUSH2 0xBF7 JUMP JUMPDEST JUMPDEST PUSH1 0x1 DUP3 ADD SWAP1 POP SWAP2 SWAP1 POP JUMP JUMPDEST PUSH1 0x0 PUSH1 0x60 DUP3 ADD SWAP1 POP PUSH2 0xC83 PUSH1 0x0 DUP4 ADD DUP7 PUSH2 0x7B7 JUMP JUMPDEST PUSH2 0xC90 PUSH1 0x20 DUP4 ADD DUP6 PUSH2 0x7B7 JUMP JUMPDEST PUSH2 0xC9D PUSH1 0x40 DUP4 ADD DUP5 PUSH2 0xAED JUMP JUMPDEST SWAP5 SWAP4 POP POP POP POP JUMP JUMPDEST PUSH32 0x43616C6C6572206973206E6F74206F776E657200000000000000000000000000 PUSH1 0x0 DUP3 ADD MSTORE POP JUMP JUMPDEST PUSH1 0x0 PUSH2 0xCDB PUSH1 0x13 DUP4 PUSH2 0xB7A JUMP JUMPDEST SWAP2 POP PUSH2 0xCE6 DUP3 PUSH2 0xCA5 JUMP JUMPDEST PUSH1 0x20 DUP3 ADD SWAP1 POP SWAP2 SWAP1 POP JUMP JUMPDEST PUSH1 0x0 PUSH1 0x20 DUP3 ADD SWAP1 POP DUP2 DUP2 SUB PUSH1 0x0 DUP4 ADD MSTORE PUSH2 0xD0A DUP2 PUSH2 0xCCE JUMP JUMPDEST SWAP1 POP SWAP2 SWAP1 POP JUMP JUMPDEST PUSH32 0x4E487B7100000000000000000000000000000000000000000000000000000000 PUSH1 0x0 MSTORE PUSH1 0x32 PUSH1 0x4 MSTORE PUSH1 0x24 PUSH1 0x0 REVERT INVALID LOG2 PUSH5 0x6970667358 0x22 SLT KECCAK256 0xC COINBASE DUP12 0x2A 0x4B LT 0x28 SELFDESTRUCT PUSH27 0xA95F13EEEE299CE62D40758E9FF3A5EC6278644A65AAC964736F6C PUSH4 0x43000811 STOP CALLER "
				},
				"gasEstimates": {
					"creation": {
						"codeDepositCost": "689200",
						"executionCost": "28665",
						"totalCost": "717865"
					},
					"external": {
						"addProposals(uint256[])": "infinite",
						"calculateWinner()": "infinite",
						"changeOwner(address)": "30633",
						"giveVoterRights(address[])": "infinite",
						"owner()": "2511",
						"proposalIds(uint256)": "infinite",
						"proposals(uint256)": "infinite",
						"vote(uint256)": "infinite",
						"voterRights(address)": "2889"
					}
				},
				"methodIdentifiers": {
					"addProposals(uint256[])": "29eb7fb5",
					"calculateWinner()": "ea35e805",
					"changeOwner(address)": "a6f9dae1",
					"giveVoterRights(address[])": "1ad1c9e9",
					"owner()": "8da5cb5b",
					"proposalIds(uint256)": "9b644a23",
					"proposals(uint256)": "013cf08b",
					"vote(uint256)": "0121b93f",
					"voterRights(address)": "9bee3d10"
				}
			},
			"storageLayout": {
				"storage": [
					{
						"astId": 3,
						"contract": "voting_howest1.sol:Voting",
						"label": "owner",
						"offset": 0,
						"slot": "0",
						"type": "t_address"
					},
					{
						"astId": 107,
						"contract": "voting_howest1.sol:Voting",
						"label": "proposals",
						"offset": 0,
						"slot": "1",
						"type": "t_mapping(t_uint256,t_uint256)"
					},
					{
						"astId": 111,
						"contract": "voting_howest1.sol:Voting",
						"label": "proposalIds",
						"offset": 0,
						"slot": "2",
						"type": "t_array(t_uint256)dyn_storage"
					},
					{
						"astId": 116,
						"contract": "voting_howest1.sol:Voting",
						"label": "voterRights",
						"offset": 0,
						"slot": "3",
						"type": "t_mapping(t_address,t_bool)"
					}
				],
				"types": {
					"t_address": {
						"encoding": "inplace",
						"label": "address",
						"numberOfBytes": "20"
					},
					"t_array(t_uint256)dyn_storage": {
						"base": "t_uint256",
						"encoding": "dynamic_array",
						"label": "uint256[]",
						"numberOfBytes": "32"
					},
					"t_bool": {
						"encoding": "inplace",
						"label": "bool",
						"numberOfBytes": "1"
					},
					"t_mapping(t_address,t_bool)": {
						"encoding": "mapping",
						"key": "t_address",
						"label": "mapping(address => bool)",
						"numberOfBytes": "32",
						"value": "t_bool"
					},
					"t_mapping(t_uint256,t_uint256)": {
						"encoding": "mapping",
						"key": "t_uint256",
						"label": "mapping(uint256 => uint256)",
						"numberOfBytes": "32",
						"value": "t_uint256"
					},
					"t_uint256": {
						"encoding": "inplace",
						"label": "uint256",
						"numberOfBytes": "32"
					}
				}
			},
			"userdoc": {
				"kind": "user",
				"methods": {
					"proposalIds(uint256)": {
						"notice": "Array van proposal ids"
					},
					"proposals(uint256)": {
						"notice": "Map van proposal id naar aantal stemmen"
					},
					"voterRights(address)": {
						"notice": "Map van user address naar boolean True: gebruiker mag stemmen False: gebruiker mag niet stemmen"
					}
				},
				"version": 1
			}
		}
	}
}