{
	"storage_contract.sol": {
		"ContractV1": {
			"abi": [
				{
					"inputs": [],
					"name": "businessLogic",
					"outputs": [
						{
							"internalType": "uint256",
							"name": "",
							"type": "uint256"
						}
					],
					"stateMutability": "view",
					"type": "function"
				},
				{
					"inputs": [],
					"name": "store",
					"outputs": [
						{
							"internalType": "contract StorageContract",
							"name": "",
							"type": "address"
						}
					],
					"stateMutability": "view",
					"type": "function"
				}
			],
			"devdoc": {
				"kind": "dev",
				"methods": {},
				"version": 1
			},
			"evm": {
				"assembly": "    /* \"storage_contract.sol\":340:497  contract ContractV1{\r... */\n  mstore(0x40, 0x80)\n  callvalue\n  dup1\n  iszero\n  tag_1\n  jumpi\n  0x00\n  dup1\n  revert\ntag_1:\n  pop\n  dataSize(sub_0)\n  dup1\n  dataOffset(sub_0)\n  0x00\n  codecopy\n  0x00\n  return\nstop\n\nsub_0: assembly {\n        /* \"storage_contract.sol\":340:497  contract ContractV1{\r... */\n      mstore(0x40, 0x80)\n      callvalue\n      dup1\n      iszero\n      tag_1\n      jumpi\n      0x00\n      dup1\n      revert\n    tag_1:\n      pop\n      jumpi(tag_2, lt(calldatasize, 0x04))\n      shr(0xe0, calldataload(0x00))\n      dup1\n      0x177f3177\n      eq\n      tag_3\n      jumpi\n      dup1\n      0x975057e7\n      eq\n      tag_4\n      jumpi\n    tag_2:\n      0x00\n      dup1\n      revert\n        /* \"storage_contract.sol\":403:494  function businessLogic() public view returns(uint){\r... */\n    tag_3:\n      tag_5\n      tag_6\n      jump\t// in\n    tag_5:\n      mload(0x40)\n      tag_7\n      swap2\n      swap1\n      tag_8\n      jump\t// in\n    tag_7:\n      mload(0x40)\n      dup1\n      swap2\n      sub\n      swap1\n      return\n        /* \"storage_contract.sol\":366:394  StorageContract public store */\n    tag_4:\n      tag_9\n      tag_10\n      jump\t// in\n    tag_9:\n      mload(0x40)\n      tag_11\n      swap2\n      swap1\n      tag_12\n      jump\t// in\n    tag_11:\n      mload(0x40)\n      dup1\n      swap2\n      sub\n      swap1\n      return\n        /* \"storage_contract.sol\":403:494  function businessLogic() public view returns(uint){\r... */\n    tag_6:\n        /* \"storage_contract.sol\":448:452  uint */\n      0x00\n        /* \"storage_contract.sol\":471:476  store */\n      dup1\n      0x00\n      swap1\n      sload\n      swap1\n      0x0100\n      exp\n      swap1\n      div\n      0xffffffffffffffffffffffffffffffffffffffff\n      and\n        /* \"storage_contract.sol\":471:484  store.balance */\n      0xffffffffffffffffffffffffffffffffffffffff\n      and\n      0xb69ef8a8\n        /* \"storage_contract.sol\":471:486  store.balance() */\n      mload(0x40)\n      dup2\n      0xffffffff\n      and\n      0xe0\n      shl\n      dup2\n      mstore\n      0x04\n      add\n      0x20\n      mload(0x40)\n      dup1\n      dup4\n      sub\n      dup2\n      dup7\n      dup1\n      extcodesize\n      iszero\n      dup1\n      iszero\n      tag_14\n      jumpi\n      0x00\n      dup1\n      revert\n    tag_14:\n      pop\n      gas\n      staticcall\n      iszero\n      dup1\n      iszero\n      tag_16\n      jumpi\n      returndatasize\n      0x00\n      dup1\n      returndatacopy\n      revert(0x00, returndatasize)\n    tag_16:\n      pop\n      pop\n      pop\n      pop\n      mload(0x40)\n      returndatasize\n      not(0x1f)\n      0x1f\n      dup3\n      add\n      and\n      dup3\n      add\n      dup1\n      0x40\n      mstore\n      pop\n      dup2\n      add\n      swap1\n      tag_17\n      swap2\n      swap1\n      tag_18\n      jump\t// in\n    tag_17:\n        /* \"storage_contract.sol\":464:486  return store.balance() */\n      swap1\n      pop\n        /* \"storage_contract.sol\":403:494  function businessLogic() public view returns(uint){\r... */\n      swap1\n      jump\t// out\n        /* \"storage_contract.sol\":366:394  StorageContract public store */\n    tag_10:\n      0x00\n      dup1\n      sload\n      swap1\n      0x0100\n      exp\n      swap1\n      div\n      0xffffffffffffffffffffffffffffffffffffffff\n      and\n      dup2\n      jump\t// out\n        /* \"#utility.yul\":7:150   */\n    tag_20:\n        /* \"#utility.yul\":64:69   */\n      0x00\n        /* \"#utility.yul\":95:101   */\n      dup2\n        /* \"#utility.yul\":89:102   */\n      mload\n        /* \"#utility.yul\":80:102   */\n      swap1\n      pop\n        /* \"#utility.yul\":111:144   */\n      tag_22\n        /* \"#utility.yul\":138:143   */\n      dup2\n        /* \"#utility.yul\":111:144   */\n      tag_23\n      jump\t// in\n    tag_22:\n        /* \"#utility.yul\":7:150   */\n      swap3\n      swap2\n      pop\n      pop\n      jump\t// out\n        /* \"#utility.yul\":156:507   */\n    tag_18:\n        /* \"#utility.yul\":226:232   */\n      0x00\n        /* \"#utility.yul\":275:277   */\n      0x20\n        /* \"#utility.yul\":263:272   */\n      dup3\n        /* \"#utility.yul\":254:261   */\n      dup5\n        /* \"#utility.yul\":250:273   */\n      sub\n        /* \"#utility.yul\":246:278   */\n      slt\n        /* \"#utility.yul\":243:362   */\n      iszero\n      tag_25\n      jumpi\n        /* \"#utility.yul\":281:360   */\n      tag_26\n      tag_27\n      jump\t// in\n    tag_26:\n        /* \"#utility.yul\":243:362   */\n    tag_25:\n        /* \"#utility.yul\":401:402   */\n      0x00\n        /* \"#utility.yul\":426:490   */\n      tag_28\n        /* \"#utility.yul\":482:489   */\n      dup5\n        /* \"#utility.yul\":473:479   */\n      dup3\n        /* \"#utility.yul\":462:471   */\n      dup6\n        /* \"#utility.yul\":458:480   */\n      add\n        /* \"#utility.yul\":426:490   */\n      tag_20\n      jump\t// in\n    tag_28:\n        /* \"#utility.yul\":416:490   */\n      swap2\n      pop\n        /* \"#utility.yul\":372:500   */\n      pop\n        /* \"#utility.yul\":156:507   */\n      swap3\n      swap2\n      pop\n      pop\n      jump\t// out\n        /* \"#utility.yul\":513:688   */\n    tag_29:\n        /* \"#utility.yul\":622:681   */\n      tag_31\n        /* \"#utility.yul\":675:680   */\n      dup2\n        /* \"#utility.yul\":622:681   */\n      tag_32\n      jump\t// in\n    tag_31:\n        /* \"#utility.yul\":617:620   */\n      dup3\n        /* \"#utility.yul\":610:682   */\n      mstore\n        /* \"#utility.yul\":513:688   */\n      pop\n      pop\n      jump\t// out\n        /* \"#utility.yul\":694:812   */\n    tag_33:\n        /* \"#utility.yul\":781:805   */\n      tag_35\n        /* \"#utility.yul\":799:804   */\n      dup2\n        /* \"#utility.yul\":781:805   */\n      tag_36\n      jump\t// in\n    tag_35:\n        /* \"#utility.yul\":776:779   */\n      dup3\n        /* \"#utility.yul\":769:806   */\n      mstore\n        /* \"#utility.yul\":694:812   */\n      pop\n      pop\n      jump\t// out\n        /* \"#utility.yul\":818:1084   */\n    tag_12:\n        /* \"#utility.yul\":933:937   */\n      0x00\n        /* \"#utility.yul\":971:973   */\n      0x20\n        /* \"#utility.yul\":960:969   */\n      dup3\n        /* \"#utility.yul\":956:974   */\n      add\n        /* \"#utility.yul\":948:974   */\n      swap1\n      pop\n        /* \"#utility.yul\":984:1077   */\n      tag_38\n        /* \"#utility.yul\":1074:1075   */\n      0x00\n        /* \"#utility.yul\":1063:1072   */\n      dup4\n        /* \"#utility.yul\":1059:1076   */\n      add\n        /* \"#utility.yul\":1050:1056   */\n      dup5\n        /* \"#utility.yul\":984:1077   */\n      tag_29\n      jump\t// in\n    tag_38:\n        /* \"#utility.yul\":818:1084   */\n      swap3\n      swap2\n      pop\n      pop\n      jump\t// out\n        /* \"#utility.yul\":1090:1312   */\n    tag_8:\n        /* \"#utility.yul\":1183:1187   */\n      0x00\n        /* \"#utility.yul\":1221:1223   */\n      0x20\n        /* \"#utility.yul\":1210:1219   */\n      dup3\n        /* \"#utility.yul\":1206:1224   */\n      add\n        /* \"#utility.yul\":1198:1224   */\n      swap1\n      pop\n        /* \"#utility.yul\":1234:1305   */\n      tag_40\n        /* \"#utility.yul\":1302:1303   */\n      0x00\n        /* \"#utility.yul\":1291:1300   */\n      dup4\n        /* \"#utility.yul\":1287:1304   */\n      add\n        /* \"#utility.yul\":1278:1284   */\n      dup5\n        /* \"#utility.yul\":1234:1305   */\n      tag_33\n      jump\t// in\n    tag_40:\n        /* \"#utility.yul\":1090:1312   */\n      swap3\n      swap2\n      pop\n      pop\n      jump\t// out\n        /* \"#utility.yul\":1399:1525   */\n    tag_43:\n        /* \"#utility.yul\":1436:1443   */\n      0x00\n        /* \"#utility.yul\":1476:1518   */\n      0xffffffffffffffffffffffffffffffffffffffff\n        /* \"#utility.yul\":1469:1474   */\n      dup3\n        /* \"#utility.yul\":1465:1519   */\n      and\n        /* \"#utility.yul\":1454:1519   */\n      swap1\n      pop\n        /* \"#utility.yul\":1399:1525   */\n      swap2\n      swap1\n      pop\n      jump\t// out\n        /* \"#utility.yul\":1531:1608   */\n    tag_36:\n        /* \"#utility.yul\":1568:1575   */\n      0x00\n        /* \"#utility.yul\":1597:1602   */\n      dup2\n        /* \"#utility.yul\":1586:1602   */\n      swap1\n      pop\n        /* \"#utility.yul\":1531:1608   */\n      swap2\n      swap1\n      pop\n      jump\t// out\n        /* \"#utility.yul\":1614:1762   */\n    tag_32:\n        /* \"#utility.yul\":1686:1695   */\n      0x00\n        /* \"#utility.yul\":1719:1756   */\n      tag_47\n        /* \"#utility.yul\":1750:1755   */\n      dup3\n        /* \"#utility.yul\":1719:1756   */\n      tag_48\n      jump\t// in\n    tag_47:\n        /* \"#utility.yul\":1706:1756   */\n      swap1\n      pop\n        /* \"#utility.yul\":1614:1762   */\n      swap2\n      swap1\n      pop\n      jump\t// out\n        /* \"#utility.yul\":1768:1894   */\n    tag_48:\n        /* \"#utility.yul\":1818:1827   */\n      0x00\n        /* \"#utility.yul\":1851:1888   */\n      tag_50\n        /* \"#utility.yul\":1882:1887   */\n      dup3\n        /* \"#utility.yul\":1851:1888   */\n      tag_51\n      jump\t// in\n    tag_50:\n        /* \"#utility.yul\":1838:1888   */\n      swap1\n      pop\n        /* \"#utility.yul\":1768:1894   */\n      swap2\n      swap1\n      pop\n      jump\t// out\n        /* \"#utility.yul\":1900:2013   */\n    tag_51:\n        /* \"#utility.yul\":1950:1959   */\n      0x00\n        /* \"#utility.yul\":1983:2007   */\n      tag_53\n        /* \"#utility.yul\":2001:2006   */\n      dup3\n        /* \"#utility.yul\":1983:2007   */\n      tag_43\n      jump\t// in\n    tag_53:\n        /* \"#utility.yul\":1970:2007   */\n      swap1\n      pop\n        /* \"#utility.yul\":1900:2013   */\n      swap2\n      swap1\n      pop\n      jump\t// out\n        /* \"#utility.yul\":2142:2259   */\n    tag_27:\n        /* \"#utility.yul\":2251:2252   */\n      0x00\n        /* \"#utility.yul\":2248:2249   */\n      dup1\n        /* \"#utility.yul\":2241:2253   */\n      revert\n        /* \"#utility.yul\":2265:2387   */\n    tag_23:\n        /* \"#utility.yul\":2338:2362   */\n      tag_58\n        /* \"#utility.yul\":2356:2361   */\n      dup2\n        /* \"#utility.yul\":2338:2362   */\n      tag_36\n      jump\t// in\n    tag_58:\n        /* \"#utility.yul\":2331:2336   */\n      dup2\n        /* \"#utility.yul\":2328:2363   */\n      eq\n        /* \"#utility.yul\":2318:2381   */\n      tag_59\n      jumpi\n        /* \"#utility.yul\":2377:2378   */\n      0x00\n        /* \"#utility.yul\":2374:2375   */\n      dup1\n        /* \"#utility.yul\":2367:2379   */\n      revert\n        /* \"#utility.yul\":2318:2381   */\n    tag_59:\n        /* \"#utility.yul\":2265:2387   */\n      pop\n      jump\t// out\n\n    auxdata: 0xa26469706673582212203971f62df791e53347a050e9b8da0bf953a94c263f77d68d5a906c27b9923ea764736f6c63430008070033\n}\n",
				"bytecode": {
					"linkReferences": {},
					"object": "608060405234801561001057600080fd5b50610289806100206000396000f3fe608060405234801561001057600080fd5b50600436106100365760003560e01c8063177f31771461003b578063975057e714610059575b600080fd5b610043610077565b60405161005091906101bc565b60405180910390f35b61006161011d565b60405161006e91906101a1565b60405180910390f35b60008060009054906101000a900473ffffffffffffffffffffffffffffffffffffffff1673ffffffffffffffffffffffffffffffffffffffff1663b69ef8a86040518163ffffffff1660e01b815260040160206040518083038186803b1580156100e057600080fd5b505afa1580156100f4573d6000803e3d6000fd5b505050506040513d601f19601f820116820180604052508101906101189190610156565b905090565b60008054906101000a900473ffffffffffffffffffffffffffffffffffffffff1681565b6000815190506101508161023c565b92915050565b60006020828403121561016c5761016b610237565b5b600061017a84828501610141565b91505092915050565b61018c81610201565b82525050565b61019b816101f7565b82525050565b60006020820190506101b66000830184610183565b92915050565b60006020820190506101d16000830184610192565b92915050565b600073ffffffffffffffffffffffffffffffffffffffff82169050919050565b6000819050919050565b600061020c82610213565b9050919050565b600061021e82610225565b9050919050565b6000610230826101d7565b9050919050565b600080fd5b610245816101f7565b811461025057600080fd5b5056fea26469706673582212203971f62df791e53347a050e9b8da0bf953a94c263f77d68d5a906c27b9923ea764736f6c63430008070033",
					"opcodes": "PUSH1 0x80 PUSH1 0x40 MSTORE CALLVALUE DUP1 ISZERO PUSH2 0x10 JUMPI PUSH1 0x0 DUP1 REVERT JUMPDEST POP PUSH2 0x289 DUP1 PUSH2 0x20 PUSH1 0x0 CODECOPY PUSH1 0x0 RETURN INVALID PUSH1 0x80 PUSH1 0x40 MSTORE CALLVALUE DUP1 ISZERO PUSH2 0x10 JUMPI PUSH1 0x0 DUP1 REVERT JUMPDEST POP PUSH1 0x4 CALLDATASIZE LT PUSH2 0x36 JUMPI PUSH1 0x0 CALLDATALOAD PUSH1 0xE0 SHR DUP1 PUSH4 0x177F3177 EQ PUSH2 0x3B JUMPI DUP1 PUSH4 0x975057E7 EQ PUSH2 0x59 JUMPI JUMPDEST PUSH1 0x0 DUP1 REVERT JUMPDEST PUSH2 0x43 PUSH2 0x77 JUMP JUMPDEST PUSH1 0x40 MLOAD PUSH2 0x50 SWAP2 SWAP1 PUSH2 0x1BC JUMP JUMPDEST PUSH1 0x40 MLOAD DUP1 SWAP2 SUB SWAP1 RETURN JUMPDEST PUSH2 0x61 PUSH2 0x11D JUMP JUMPDEST PUSH1 0x40 MLOAD PUSH2 0x6E SWAP2 SWAP1 PUSH2 0x1A1 JUMP JUMPDEST PUSH1 0x40 MLOAD DUP1 SWAP2 SUB SWAP1 RETURN JUMPDEST PUSH1 0x0 DUP1 PUSH1 0x0 SWAP1 SLOAD SWAP1 PUSH2 0x100 EXP SWAP1 DIV PUSH20 0xFFFFFFFFFFFFFFFFFFFFFFFFFFFFFFFFFFFFFFFF AND PUSH20 0xFFFFFFFFFFFFFFFFFFFFFFFFFFFFFFFFFFFFFFFF AND PUSH4 0xB69EF8A8 PUSH1 0x40 MLOAD DUP2 PUSH4 0xFFFFFFFF AND PUSH1 0xE0 SHL DUP2 MSTORE PUSH1 0x4 ADD PUSH1 0x20 PUSH1 0x40 MLOAD DUP1 DUP4 SUB DUP2 DUP7 DUP1 EXTCODESIZE ISZERO DUP1 ISZERO PUSH2 0xE0 JUMPI PUSH1 0x0 DUP1 REVERT JUMPDEST POP GAS STATICCALL ISZERO DUP1 ISZERO PUSH2 0xF4 JUMPI RETURNDATASIZE PUSH1 0x0 DUP1 RETURNDATACOPY RETURNDATASIZE PUSH1 0x0 REVERT JUMPDEST POP POP POP POP PUSH1 0x40 MLOAD RETURNDATASIZE PUSH1 0x1F NOT PUSH1 0x1F DUP3 ADD AND DUP3 ADD DUP1 PUSH1 0x40 MSTORE POP DUP2 ADD SWAP1 PUSH2 0x118 SWAP2 SWAP1 PUSH2 0x156 JUMP JUMPDEST SWAP1 POP SWAP1 JUMP JUMPDEST PUSH1 0x0 DUP1 SLOAD SWAP1 PUSH2 0x100 EXP SWAP1 DIV PUSH20 0xFFFFFFFFFFFFFFFFFFFFFFFFFFFFFFFFFFFFFFFF AND DUP2 JUMP JUMPDEST PUSH1 0x0 DUP2 MLOAD SWAP1 POP PUSH2 0x150 DUP2 PUSH2 0x23C JUMP JUMPDEST SWAP3 SWAP2 POP POP JUMP JUMPDEST PUSH1 0x0 PUSH1 0x20 DUP3 DUP5 SUB SLT ISZERO PUSH2 0x16C JUMPI PUSH2 0x16B PUSH2 0x237 JUMP JUMPDEST JUMPDEST PUSH1 0x0 PUSH2 0x17A DUP5 DUP3 DUP6 ADD PUSH2 0x141 JUMP JUMPDEST SWAP2 POP POP SWAP3 SWAP2 POP POP JUMP JUMPDEST PUSH2 0x18C DUP2 PUSH2 0x201 JUMP JUMPDEST DUP3 MSTORE POP POP JUMP JUMPDEST PUSH2 0x19B DUP2 PUSH2 0x1F7 JUMP JUMPDEST DUP3 MSTORE POP POP JUMP JUMPDEST PUSH1 0x0 PUSH1 0x20 DUP3 ADD SWAP1 POP PUSH2 0x1B6 PUSH1 0x0 DUP4 ADD DUP5 PUSH2 0x183 JUMP JUMPDEST SWAP3 SWAP2 POP POP JUMP JUMPDEST PUSH1 0x0 PUSH1 0x20 DUP3 ADD SWAP1 POP PUSH2 0x1D1 PUSH1 0x0 DUP4 ADD DUP5 PUSH2 0x192 JUMP JUMPDEST SWAP3 SWAP2 POP POP JUMP JUMPDEST PUSH1 0x0 PUSH20 0xFFFFFFFFFFFFFFFFFFFFFFFFFFFFFFFFFFFFFFFF DUP3 AND SWAP1 POP SWAP2 SWAP1 POP JUMP JUMPDEST PUSH1 0x0 DUP2 SWAP1 POP SWAP2 SWAP1 POP JUMP JUMPDEST PUSH1 0x0 PUSH2 0x20C DUP3 PUSH2 0x213 JUMP JUMPDEST SWAP1 POP SWAP2 SWAP1 POP JUMP JUMPDEST PUSH1 0x0 PUSH2 0x21E DUP3 PUSH2 0x225 JUMP JUMPDEST SWAP1 POP SWAP2 SWAP1 POP JUMP JUMPDEST PUSH1 0x0 PUSH2 0x230 DUP3 PUSH2 0x1D7 JUMP JUMPDEST SWAP1 POP SWAP2 SWAP1 POP JUMP JUMPDEST PUSH1 0x0 DUP1 REVERT JUMPDEST PUSH2 0x245 DUP2 PUSH2 0x1F7 JUMP JUMPDEST DUP2 EQ PUSH2 0x250 JUMPI PUSH1 0x0 DUP1 REVERT JUMPDEST POP JUMP INVALID LOG2 PUSH5 0x6970667358 0x22 SLT KECCAK256 CODECOPY PUSH18 0xF62DF791E53347A050E9B8DA0BF953A94C26 EXTCODEHASH PUSH24 0xD68D5A906C27B9923EA764736F6C63430008070033000000 "
				},
				"gasEstimates": {
					"creation": {
						"codeDepositCost": "129800",
						"executionCost": "177",
						"totalCost": "129977"
					},
					"external": {
						"businessLogic()": "infinite",
						"store()": "2597"
					}
				},
				"methodIdentifiers": {
					"businessLogic()": "177f3177",
					"store()": "975057e7"
				}
			},
			"storageLayout": {
				"storage": [
					{
						"astId": 29,
						"contract": "storage_contract.sol:ContractV1",
						"label": "store",
						"offset": 0,
						"slot": "0",
						"type": "t_contract(StorageContract)26"
					}
				],
				"types": {
					"t_contract(StorageContract)26": {
						"encoding": "inplace",
						"label": "contract StorageContract",
						"numberOfBytes": "20"
					}
				}
			},
			"userdoc": {
				"kind": "user",
				"methods": {},
				"version": 1
			}
		}
	}
}