{
	"upgradable_smart_contract.sol": {
		"ContractProxy": {
			"abi": [
				{
					"inputs": [],
					"name": "businessLogic",
					"outputs": [
						{
							"internalType": "uint256",
							"name": "",
							"type": "uint256"
						}
					],
					"stateMutability": "nonpayable",
					"type": "function"
				},
				{
					"inputs": [
						{
							"internalType": "address",
							"name": "newContractAddress",
							"type": "address"
						}
					],
					"name": "update",
					"outputs": [],
					"stateMutability": "nonpayable",
					"type": "function"
				}
			],
			"devdoc": {
				"kind": "dev",
				"methods": {},
				"version": 1
			},
			"evm": {
				"assembly": "    /* \"upgradable_smart_contract.sol\":925:1238  contract ContractProxy {\r... */\n  mstore(0x40, 0x80)\n  callvalue\n  dup1\n  iszero\n  tag_1\n  jumpi\n  0x00\n  dup1\n  revert\ntag_1:\n  pop\n  dataSize(sub_0)\n  dup1\n  dataOffset(sub_0)\n  0x00\n  codecopy\n  0x00\n  return\nstop\n\nsub_0: assembly {\n        /* \"upgradable_smart_contract.sol\":925:1238  contract ContractProxy {\r... */\n      mstore(0x40, 0x80)\n      callvalue\n      dup1\n      iszero\n      tag_1\n      jumpi\n      0x00\n      dup1\n      revert\n    tag_1:\n      pop\n      jumpi(tag_2, lt(calldatasize, 0x04))\n      shr(0xe0, calldataload(0x00))\n      dup1\n      0x177f3177\n      eq\n      tag_3\n      jumpi\n      dup1\n      0x1c1b8772\n      eq\n      tag_4\n      jumpi\n    tag_2:\n      0x00\n      dup1\n      revert\n        /* \"upgradable_smart_contract.sol\":1129:1231  function businessLogic() public returns(uint){\r... */\n    tag_3:\n      tag_5\n      tag_6\n      jump\t// in\n    tag_5:\n      mload(0x40)\n      tag_7\n      swap2\n      swap1\n      tag_8\n      jump\t// in\n    tag_7:\n      mload(0x40)\n      dup1\n      swap2\n      sub\n      swap1\n      return\n        /* \"upgradable_smart_contract.sol\":997:1121  function update (address newContractAddress)public{\r... */\n    tag_4:\n      tag_9\n      0x04\n      dup1\n      calldatasize\n      sub\n      dup2\n      add\n      swap1\n      tag_10\n      swap2\n      swap1\n      tag_11\n      jump\t// in\n    tag_10:\n      tag_12\n      jump\t// in\n    tag_9:\n      stop\n        /* \"upgradable_smart_contract.sol\":1129:1231  function businessLogic() public returns(uint){\r... */\n    tag_6:\n        /* \"upgradable_smart_contract.sol\":1169:1173  uint */\n      0x00\n        /* \"upgradable_smart_contract.sol\":1192:1207  currentContract */\n      dup1\n      0x00\n      swap1\n      sload\n      swap1\n      0x0100\n      exp\n      swap1\n      div\n      0xffffffffffffffffffffffffffffffffffffffff\n      and\n        /* \"upgradable_smart_contract.sol\":1192:1221  currentContract.businessLogic */\n      0xffffffffffffffffffffffffffffffffffffffff\n      and\n      0x177f3177\n        /* \"upgradable_smart_contract.sol\":1192:1223  currentContract.businessLogic() */\n      mload(0x40)\n      dup2\n      0xffffffff\n      and\n      0xe0\n      shl\n      dup2\n      mstore\n      0x04\n      add\n      0x20\n      mload(0x40)\n      dup1\n      dup4\n      sub\n      dup2\n      0x00\n      dup8\n      dup1\n      extcodesize\n      iszero\n      dup1\n      iszero\n      tag_14\n      jumpi\n      0x00\n      dup1\n      revert\n    tag_14:\n      pop\n      gas\n      call\n      iszero\n      dup1\n      iszero\n      tag_16\n      jumpi\n      returndatasize\n      0x00\n      dup1\n      returndatacopy\n      revert(0x00, returndatasize)\n    tag_16:\n      pop\n      pop\n      pop\n      pop\n      mload(0x40)\n      returndatasize\n      not(0x1f)\n      0x1f\n      dup3\n      add\n      and\n      dup3\n      add\n      dup1\n      0x40\n      mstore\n      pop\n      dup2\n      add\n      swap1\n      tag_17\n      swap2\n      swap1\n      tag_18\n      jump\t// in\n    tag_17:\n        /* \"upgradable_smart_contract.sol\":1185:1223  return currentContract.businessLogic() */\n      swap1\n      pop\n        /* \"upgradable_smart_contract.sol\":1129:1231  function businessLogic() public returns(uint){\r... */\n      swap1\n      jump\t// out\n        /* \"upgradable_smart_contract.sol\":997:1121  function update (address newContractAddress)public{\r... */\n    tag_12:\n        /* \"upgradable_smart_contract.sol\":1094:1112  newContractAddress */\n      dup1\n        /* \"upgradable_smart_contract.sol\":1058:1073  currentContract */\n      0x00\n      dup1\n        /* \"upgradable_smart_contract.sol\":1058:1113  currentContract = ContractInterface(newContractAddress) */\n      0x0100\n      exp\n      dup2\n      sload\n      dup2\n      0xffffffffffffffffffffffffffffffffffffffff\n      mul\n      not\n      and\n      swap1\n      dup4\n      0xffffffffffffffffffffffffffffffffffffffff\n      and\n      mul\n      or\n      swap1\n      sstore\n      pop\n        /* \"upgradable_smart_contract.sol\":997:1121  function update (address newContractAddress)public{\r... */\n      pop\n      jump\t// out\n        /* \"#utility.yul\":7:146   */\n    tag_21:\n        /* \"#utility.yul\":53:58   */\n      0x00\n        /* \"#utility.yul\":91:97   */\n      dup2\n        /* \"#utility.yul\":78:98   */\n      calldataload\n        /* \"#utility.yul\":69:98   */\n      swap1\n      pop\n        /* \"#utility.yul\":107:140   */\n      tag_23\n        /* \"#utility.yul\":134:139   */\n      dup2\n        /* \"#utility.yul\":107:140   */\n      tag_24\n      jump\t// in\n    tag_23:\n        /* \"#utility.yul\":7:146   */\n      swap3\n      swap2\n      pop\n      pop\n      jump\t// out\n        /* \"#utility.yul\":152:295   */\n    tag_25:\n        /* \"#utility.yul\":209:214   */\n      0x00\n        /* \"#utility.yul\":240:246   */\n      dup2\n        /* \"#utility.yul\":234:247   */\n      mload\n        /* \"#utility.yul\":225:247   */\n      swap1\n      pop\n        /* \"#utility.yul\":256:289   */\n      tag_27\n        /* \"#utility.yul\":283:288   */\n      dup2\n        /* \"#utility.yul\":256:289   */\n      tag_28\n      jump\t// in\n    tag_27:\n        /* \"#utility.yul\":152:295   */\n      swap3\n      swap2\n      pop\n      pop\n      jump\t// out\n        /* \"#utility.yul\":301:630   */\n    tag_11:\n        /* \"#utility.yul\":360:366   */\n      0x00\n        /* \"#utility.yul\":409:411   */\n      0x20\n        /* \"#utility.yul\":397:406   */\n      dup3\n        /* \"#utility.yul\":388:395   */\n      dup5\n        /* \"#utility.yul\":384:407   */\n      sub\n        /* \"#utility.yul\":380:412   */\n      slt\n        /* \"#utility.yul\":377:496   */\n      iszero\n      tag_30\n      jumpi\n        /* \"#utility.yul\":415:494   */\n      tag_31\n      tag_32\n      jump\t// in\n    tag_31:\n        /* \"#utility.yul\":377:496   */\n    tag_30:\n        /* \"#utility.yul\":535:536   */\n      0x00\n        /* \"#utility.yul\":560:613   */\n      tag_33\n        /* \"#utility.yul\":605:612   */\n      dup5\n        /* \"#utility.yul\":596:602   */\n      dup3\n        /* \"#utility.yul\":585:594   */\n      dup6\n        /* \"#utility.yul\":581:603   */\n      add\n        /* \"#utility.yul\":560:613   */\n      tag_21\n      jump\t// in\n    tag_33:\n        /* \"#utility.yul\":550:613   */\n      swap2\n      pop\n        /* \"#utility.yul\":506:623   */\n      pop\n        /* \"#utility.yul\":301:630   */\n      swap3\n      swap2\n      pop\n      pop\n      jump\t// out\n        /* \"#utility.yul\":636:987   */\n    tag_18:\n        /* \"#utility.yul\":706:712   */\n      0x00\n        /* \"#utility.yul\":755:757   */\n      0x20\n        /* \"#utility.yul\":743:752   */\n      dup3\n        /* \"#utility.yul\":734:741   */\n      dup5\n        /* \"#utility.yul\":730:753   */\n      sub\n        /* \"#utility.yul\":726:758   */\n      slt\n        /* \"#utility.yul\":723:842   */\n      iszero\n      tag_35\n      jumpi\n        /* \"#utility.yul\":761:840   */\n      tag_36\n      tag_32\n      jump\t// in\n    tag_36:\n        /* \"#utility.yul\":723:842   */\n    tag_35:\n        /* \"#utility.yul\":881:882   */\n      0x00\n        /* \"#utility.yul\":906:970   */\n      tag_37\n        /* \"#utility.yul\":962:969   */\n      dup5\n        /* \"#utility.yul\":953:959   */\n      dup3\n        /* \"#utility.yul\":942:951   */\n      dup6\n        /* \"#utility.yul\":938:960   */\n      add\n        /* \"#utility.yul\":906:970   */\n      tag_25\n      jump\t// in\n    tag_37:\n        /* \"#utility.yul\":896:970   */\n      swap2\n      pop\n        /* \"#utility.yul\":852:980   */\n      pop\n        /* \"#utility.yul\":636:987   */\n      swap3\n      swap2\n      pop\n      pop\n      jump\t// out\n        /* \"#utility.yul\":993:1111   */\n    tag_38:\n        /* \"#utility.yul\":1080:1104   */\n      tag_40\n        /* \"#utility.yul\":1098:1103   */\n      dup2\n        /* \"#utility.yul\":1080:1104   */\n      tag_41\n      jump\t// in\n    tag_40:\n        /* \"#utility.yul\":1075:1078   */\n      dup3\n        /* \"#utility.yul\":1068:1105   */\n      mstore\n        /* \"#utility.yul\":993:1111   */\n      pop\n      pop\n      jump\t// out\n        /* \"#utility.yul\":1117:1339   */\n    tag_8:\n        /* \"#utility.yul\":1210:1214   */\n      0x00\n        /* \"#utility.yul\":1248:1250   */\n      0x20\n        /* \"#utility.yul\":1237:1246   */\n      dup3\n        /* \"#utility.yul\":1233:1251   */\n      add\n        /* \"#utility.yul\":1225:1251   */\n      swap1\n      pop\n        /* \"#utility.yul\":1261:1332   */\n      tag_43\n        /* \"#utility.yul\":1329:1330   */\n      0x00\n        /* \"#utility.yul\":1318:1327   */\n      dup4\n        /* \"#utility.yul\":1314:1331   */\n      add\n        /* \"#utility.yul\":1305:1311   */\n      dup5\n        /* \"#utility.yul\":1261:1332   */\n      tag_38\n      jump\t// in\n    tag_43:\n        /* \"#utility.yul\":1117:1339   */\n      swap3\n      swap2\n      pop\n      pop\n      jump\t// out\n        /* \"#utility.yul\":1426:1522   */\n    tag_46:\n        /* \"#utility.yul\":1463:1470   */\n      0x00\n        /* \"#utility.yul\":1492:1516   */\n      tag_48\n        /* \"#utility.yul\":1510:1515   */\n      dup3\n        /* \"#utility.yul\":1492:1516   */\n      tag_49\n      jump\t// in\n    tag_48:\n        /* \"#utility.yul\":1481:1516   */\n      swap1\n      pop\n        /* \"#utility.yul\":1426:1522   */\n      swap2\n      swap1\n      pop\n      jump\t// out\n        /* \"#utility.yul\":1528:1654   */\n    tag_49:\n        /* \"#utility.yul\":1565:1572   */\n      0x00\n        /* \"#utility.yul\":1605:1647   */\n      0xffffffffffffffffffffffffffffffffffffffff\n        /* \"#utility.yul\":1598:1603   */\n      dup3\n        /* \"#utility.yul\":1594:1648   */\n      and\n        /* \"#utility.yul\":1583:1648   */\n      swap1\n      pop\n        /* \"#utility.yul\":1528:1654   */\n      swap2\n      swap1\n      pop\n      jump\t// out\n        /* \"#utility.yul\":1660:1737   */\n    tag_41:\n        /* \"#utility.yul\":1697:1704   */\n      0x00\n        /* \"#utility.yul\":1726:1731   */\n      dup2\n        /* \"#utility.yul\":1715:1731   */\n      swap1\n      pop\n        /* \"#utility.yul\":1660:1737   */\n      swap2\n      swap1\n      pop\n      jump\t// out\n        /* \"#utility.yul\":1866:1983   */\n    tag_32:\n        /* \"#utility.yul\":1975:1976   */\n      0x00\n        /* \"#utility.yul\":1972:1973   */\n      dup1\n        /* \"#utility.yul\":1965:1977   */\n      revert\n        /* \"#utility.yul\":1989:2111   */\n    tag_24:\n        /* \"#utility.yul\":2062:2086   */\n      tag_56\n        /* \"#utility.yul\":2080:2085   */\n      dup2\n        /* \"#utility.yul\":2062:2086   */\n      tag_46\n      jump\t// in\n    tag_56:\n        /* \"#utility.yul\":2055:2060   */\n      dup2\n        /* \"#utility.yul\":2052:2087   */\n      eq\n        /* \"#utility.yul\":2042:2105   */\n      tag_57\n      jumpi\n        /* \"#utility.yul\":2101:2102   */\n      0x00\n        /* \"#utility.yul\":2098:2099   */\n      dup1\n        /* \"#utility.yul\":2091:2103   */\n      revert\n        /* \"#utility.yul\":2042:2105   */\n    tag_57:\n        /* \"#utility.yul\":1989:2111   */\n      pop\n      jump\t// out\n        /* \"#utility.yul\":2117:2239   */\n    tag_28:\n        /* \"#utility.yul\":2190:2214   */\n      tag_59\n        /* \"#utility.yul\":2208:2213   */\n      dup2\n        /* \"#utility.yul\":2190:2214   */\n      tag_41\n      jump\t// in\n    tag_59:\n        /* \"#utility.yul\":2183:2188   */\n      dup2\n        /* \"#utility.yul\":2180:2215   */\n      eq\n        /* \"#utility.yul\":2170:2233   */\n      tag_60\n      jumpi\n        /* \"#utility.yul\":2229:2230   */\n      0x00\n        /* \"#utility.yul\":2226:2227   */\n      dup1\n        /* \"#utility.yul\":2219:2231   */\n      revert\n        /* \"#utility.yul\":2170:2233   */\n    tag_60:\n        /* \"#utility.yul\":2117:2239   */\n      pop\n      jump\t// out\n\n    auxdata: 0xa2646970667358221220eca65e349f3dac4d96754a0e4961691ba976905d5211750ec6a660a5384d6f3264736f6c63430008070033\n}\n",
				"bytecode": {
					"linkReferences": {},
					"object": "608060405234801561001057600080fd5b506102b3806100206000396000f3fe608060405234801561001057600080fd5b50600436106100365760003560e01c8063177f31771461003b5780631c1b877214610059575b600080fd5b610043610075565b60405161005091906101f3565b60405180910390f35b610073600480360381019061006e919061018a565b61011d565b005b60008060009054906101000a900473ffffffffffffffffffffffffffffffffffffffff1673ffffffffffffffffffffffffffffffffffffffff1663177f31776040518163ffffffff1660e01b8152600401602060405180830381600087803b1580156100e057600080fd5b505af11580156100f4573d6000803e3d6000fd5b505050506040513d601f19601f8201168201806040525081019061011891906101b7565b905090565b806000806101000a81548173ffffffffffffffffffffffffffffffffffffffff021916908373ffffffffffffffffffffffffffffffffffffffff16021790555050565b60008135905061016f8161024f565b92915050565b60008151905061018481610266565b92915050565b6000602082840312156101a05761019f61024a565b5b60006101ae84828501610160565b91505092915050565b6000602082840312156101cd576101cc61024a565b5b60006101db84828501610175565b91505092915050565b6101ed81610240565b82525050565b600060208201905061020860008301846101e4565b92915050565b600061021982610220565b9050919050565b600073ffffffffffffffffffffffffffffffffffffffff82169050919050565b6000819050919050565b600080fd5b6102588161020e565b811461026357600080fd5b50565b61026f81610240565b811461027a57600080fd5b5056fea2646970667358221220eca65e349f3dac4d96754a0e4961691ba976905d5211750ec6a660a5384d6f3264736f6c63430008070033",
					"opcodes": "PUSH1 0x80 PUSH1 0x40 MSTORE CALLVALUE DUP1 ISZERO PUSH2 0x10 JUMPI PUSH1 0x0 DUP1 REVERT JUMPDEST POP PUSH2 0x2B3 DUP1 PUSH2 0x20 PUSH1 0x0 CODECOPY PUSH1 0x0 RETURN INVALID PUSH1 0x80 PUSH1 0x40 MSTORE CALLVALUE DUP1 ISZERO PUSH2 0x10 JUMPI PUSH1 0x0 DUP1 REVERT JUMPDEST POP PUSH1 0x4 CALLDATASIZE LT PUSH2 0x36 JUMPI PUSH1 0x0 CALLDATALOAD PUSH1 0xE0 SHR DUP1 PUSH4 0x177F3177 EQ PUSH2 0x3B JUMPI DUP1 PUSH4 0x1C1B8772 EQ PUSH2 0x59 JUMPI JUMPDEST PUSH1 0x0 DUP1 REVERT JUMPDEST PUSH2 0x43 PUSH2 0x75 JUMP JUMPDEST PUSH1 0x40 MLOAD PUSH2 0x50 SWAP2 SWAP1 PUSH2 0x1F3 JUMP JUMPDEST PUSH1 0x40 MLOAD DUP1 SWAP2 SUB SWAP1 RETURN JUMPDEST PUSH2 0x73 PUSH1 0x4 DUP1 CALLDATASIZE SUB DUP2 ADD SWAP1 PUSH2 0x6E SWAP2 SWAP1 PUSH2 0x18A JUMP JUMPDEST PUSH2 0x11D JUMP JUMPDEST STOP JUMPDEST PUSH1 0x0 DUP1 PUSH1 0x0 SWAP1 SLOAD SWAP1 PUSH2 0x100 EXP SWAP1 DIV PUSH20 0xFFFFFFFFFFFFFFFFFFFFFFFFFFFFFFFFFFFFFFFF AND PUSH20 0xFFFFFFFFFFFFFFFFFFFFFFFFFFFFFFFFFFFFFFFF AND PUSH4 0x177F3177 PUSH1 0x40 MLOAD DUP2 PUSH4 0xFFFFFFFF AND PUSH1 0xE0 SHL DUP2 MSTORE PUSH1 0x4 ADD PUSH1 0x20 PUSH1 0x40 MLOAD DUP1 DUP4 SUB DUP2 PUSH1 0x0 DUP8 DUP1 EXTCODESIZE ISZERO DUP1 ISZERO PUSH2 0xE0 JUMPI PUSH1 0x0 DUP1 REVERT JUMPDEST POP GAS CALL ISZERO DUP1 ISZERO PUSH2 0xF4 JUMPI RETURNDATASIZE PUSH1 0x0 DUP1 RETURNDATACOPY RETURNDATASIZE PUSH1 0x0 REVERT JUMPDEST POP POP POP POP PUSH1 0x40 MLOAD RETURNDATASIZE PUSH1 0x1F NOT PUSH1 0x1F DUP3 ADD AND DUP3 ADD DUP1 PUSH1 0x40 MSTORE POP DUP2 ADD SWAP1 PUSH2 0x118 SWAP2 SWAP1 PUSH2 0x1B7 JUMP JUMPDEST SWAP1 POP SWAP1 JUMP JUMPDEST DUP1 PUSH1 0x0 DUP1 PUSH2 0x100 EXP DUP2 SLOAD DUP2 PUSH20 0xFFFFFFFFFFFFFFFFFFFFFFFFFFFFFFFFFFFFFFFF MUL NOT AND SWAP1 DUP4 PUSH20 0xFFFFFFFFFFFFFFFFFFFFFFFFFFFFFFFFFFFFFFFF AND MUL OR SWAP1 SSTORE POP POP JUMP JUMPDEST PUSH1 0x0 DUP2 CALLDATALOAD SWAP1 POP PUSH2 0x16F DUP2 PUSH2 0x24F JUMP JUMPDEST SWAP3 SWAP2 POP POP JUMP JUMPDEST PUSH1 0x0 DUP2 MLOAD SWAP1 POP PUSH2 0x184 DUP2 PUSH2 0x266 JUMP JUMPDEST SWAP3 SWAP2 POP POP JUMP JUMPDEST PUSH1 0x0 PUSH1 0x20 DUP3 DUP5 SUB SLT ISZERO PUSH2 0x1A0 JUMPI PUSH2 0x19F PUSH2 0x24A JUMP JUMPDEST JUMPDEST PUSH1 0x0 PUSH2 0x1AE DUP5 DUP3 DUP6 ADD PUSH2 0x160 JUMP JUMPDEST SWAP2 POP POP SWAP3 SWAP2 POP POP JUMP JUMPDEST PUSH1 0x0 PUSH1 0x20 DUP3 DUP5 SUB SLT ISZERO PUSH2 0x1CD JUMPI PUSH2 0x1CC PUSH2 0x24A JUMP JUMPDEST JUMPDEST PUSH1 0x0 PUSH2 0x1DB DUP5 DUP3 DUP6 ADD PUSH2 0x175 JUMP JUMPDEST SWAP2 POP POP SWAP3 SWAP2 POP POP JUMP JUMPDEST PUSH2 0x1ED DUP2 PUSH2 0x240 JUMP JUMPDEST DUP3 MSTORE POP POP JUMP JUMPDEST PUSH1 0x0 PUSH1 0x20 DUP3 ADD SWAP1 POP PUSH2 0x208 PUSH1 0x0 DUP4 ADD DUP5 PUSH2 0x1E4 JUMP JUMPDEST SWAP3 SWAP2 POP POP JUMP JUMPDEST PUSH1 0x0 PUSH2 0x219 DUP3 PUSH2 0x220 JUMP JUMPDEST SWAP1 POP SWAP2 SWAP1 POP JUMP JUMPDEST PUSH1 0x0 PUSH20 0xFFFFFFFFFFFFFFFFFFFFFFFFFFFFFFFFFFFFFFFF DUP3 AND SWAP1 POP SWAP2 SWAP1 POP JUMP JUMPDEST PUSH1 0x0 DUP2 SWAP1 POP SWAP2 SWAP1 POP JUMP JUMPDEST PUSH1 0x0 DUP1 REVERT JUMPDEST PUSH2 0x258 DUP2 PUSH2 0x20E JUMP JUMPDEST DUP2 EQ PUSH2 0x263 JUMPI PUSH1 0x0 DUP1 REVERT JUMPDEST POP JUMP JUMPDEST PUSH2 0x26F DUP2 PUSH2 0x240 JUMP JUMPDEST DUP2 EQ PUSH2 0x27A JUMPI PUSH1 0x0 DUP1 REVERT JUMPDEST POP JUMP INVALID LOG2 PUSH5 0x6970667358 0x22 SLT KECCAK256 0xEC 0xA6 0x5E CALLVALUE SWAP16 RETURNDATASIZE 0xAC 0x4D SWAP7 PUSH22 0x4A0E4961691BA976905D5211750EC6A660A5384D6F32 PUSH5 0x736F6C6343 STOP ADDMOD SMOD STOP CALLER "
				},
				"gasEstimates": {
					"creation": {
						"codeDepositCost": "138200",
						"executionCost": "183",
						"totalCost": "138383"
					},
					"external": {
						"businessLogic()": "infinite",
						"update(address)": "24722"
					}
				},
				"methodIdentifiers": {
					"businessLogic()": "177f3177",
					"update(address)": "1c1b8772"
				}
			},
			"storageLayout": {
				"storage": [
					{
						"astId": 73,
						"contract": "upgradable_smart_contract.sol:ContractProxy",
						"label": "currentContract",
						"offset": 0,
						"slot": "0",
						"type": "t_contract(ContractInterface)70"
					}
				],
				"types": {
					"t_contract(ContractInterface)70": {
						"encoding": "inplace",
						"label": "contract ContractInterface",
						"numberOfBytes": "20"
					}
				}
			},
			"userdoc": {
				"kind": "user",
				"methods": {},
				"version": 1
			}
		}
	}
}